Archive member included because of file (symbol)

C:\LPC1114_GIT\rfm73_client\Lib\librfm73_client.a(client_rfm.o)
                              ./src/main.o (rfc_init)
C:\LPC1114_GIT\rfm73_client\Lib\librfm73_client.a(rfm.o)
                              C:\LPC1114_GIT\rfm73_client\Lib\librfm73_client.a(client_rfm.o) (rfm_read)
C:\LPC1114_GIT\rfm73_client\Lib\librfm73_client.a(compat.o)
                              C:\LPC1114_GIT\rfm73_client\Lib\librfm73_client.a(rfm.o) (_wait)
C:\LPC1114_GIT\core\Lib\libcore.a(printf.o)
                              ./src/main.o (uart_init)
C:\LPC1114_GIT\core\Lib\libcore.a(small_printf_nofloat.o)
                              C:\LPC1114_GIT\core\Lib\libcore.a(printf.o) (printf_format_nofloat)
C:\LPC1114_GIT\core\Lib\libcore.a(small_printf_support.o)
                              C:\LPC1114_GIT\core\Lib\libcore.a(printf.o) (prints)
C:\LPC1114_GIT\core\Lib\libcore.a(adc_utils.o)
                              ./src/main.o (adc_init)
C:\LPC1114_GIT\core\Lib\libcore.a(gpio.o)
                              ./src/ext.o (GPIOInit)
C:\LPC1114_GIT\core\Lib\libcore.a(leds.o)
                              ./src/main.o (led_init)
C:\LPC1114_GIT\core\Lib\libcore.a(pwr.o)
                              ./src/main.o (pwr_init)
C:\LPC1114_GIT\core\Lib\libcore.a(spi.o)
                              C:\LPC1114_GIT\rfm73_client\Lib\librfm73_client.a(compat.o) (nrf_start)
C:\LPC1114_GIT\core\Lib\libcore.a(ssp1.o)
                              ./src/temp.o (SSP1_IOConfig)
C:\LPC1114_GIT\core\Lib\libcore.a(adc.o)
                              C:\LPC1114_GIT\core\Lib\libcore.a(adc_utils.o) (ADCInit)
C:\LPC1114_GIT\core\Lib\libcore.a(counter.o)
                              C:\LPC1114_GIT\core\Lib\libcore.a(pwr.o) (counter_init_12mhz)
C:\LPC1114_GIT\CMSIS_CORE_LPC11xx\Debug\libCMSIS_CORE_LPC11xx.a(system_LPC11xx.o)
                              C:\LPC1114_GIT\core\Lib\libcore.a(adc.o) (SystemCoreClock)
c:/nxp/lpcxpresso_6.1.0_164/lpcxpresso/tools/bin/../lib/gcc/arm-none-eabi/4.6.2/../../../../arm-none-eabi/lib/armv6-m\libcr_c.a(memcpy.o)
                              C:\LPC1114_GIT\rfm73_client\Lib\librfm73_client.a(client_rfm.o) (memcpy)
c:/nxp/lpcxpresso_6.1.0_164/lpcxpresso/tools/bin/../lib/gcc/arm-none-eabi/4.6.2/../../../../arm-none-eabi/lib/armv6-m\libcr_c.a(memmove.o)
                              C:\LPC1114_GIT\core\Lib\libcore.a(printf.o) (memmove)
c:/nxp/lpcxpresso_6.1.0_164/lpcxpresso/tools/bin/../lib/gcc/arm-none-eabi/4.6.2/../../../../arm-none-eabi/lib/armv6-m\libcr_c.a(memset.o)
                              C:\LPC1114_GIT\rfm73_client\Lib\librfm73_client.a(client_rfm.o) (memset)
c:/nxp/lpcxpresso_6.1.0_164/lpcxpresso/tools/bin/../lib/gcc/arm-none-eabi/4.6.2/../../../../arm-none-eabi/lib/armv6-m\libcr_c.a(__weak__main.o)
                              ./src/cr_startup_lpc11xx.o (__main)
c:/nxp/lpcxpresso_6.1.0_164/lpcxpresso/tools/bin/../lib/gcc/arm-none-eabi/4.6.2/armv6-m\libcr_eabihelpers.a(division.o)
                              ./src/temp.o (__aeabi_idiv)
c:/nxp/lpcxpresso_6.1.0_164/lpcxpresso/tools/bin/../lib/gcc/arm-none-eabi/4.6.2/armv6-m\libcr_eabihelpers.a(memcpy.o)
                              c:/nxp/lpcxpresso_6.1.0_164/lpcxpresso/tools/bin/../lib/gcc/arm-none-eabi/4.6.2/../../../../arm-none-eabi/lib/armv6-m\libcr_c.a(memcpy.o) (__aeabi_memcpy)

Allocating common symbols
Common symbol       size              file

vbatt               0x2               C:\LPC1114_GIT\core\Lib\libcore.a(adc_utils.o)
self                0x2               C:\LPC1114_GIT\rfm73_client\Lib\librfm73_client.a(client_rfm.o)
ack                 0x1               C:\LPC1114_GIT\rfm73_client\Lib\librfm73_client.a(client_rfm.o)
pipe                0x3               C:\LPC1114_GIT\rfm73_client\Lib\librfm73_client.a(client_rfm.o)
prev_status         0x1               C:\LPC1114_GIT\rfm73_client\Lib\librfm73_client.a(rfm.o)
tx_callb            0x4               C:\LPC1114_GIT\rfm73_client\Lib\librfm73_client.a(rfm.o)
_vbatt              0x2               C:\LPC1114_GIT\core\Lib\libcore.a(adc_utils.o)
tx_done             0x1               C:\LPC1114_GIT\rfm73_client\Lib\librfm73_client.a(rfm.o)
buffer              0xc8              C:\LPC1114_GIT\core\Lib\libcore.a(printf.o)
ADCValue            0x20              C:\LPC1114_GIT\core\Lib\libcore.a(adc.o)
rx_callb            0x4               C:\LPC1114_GIT\rfm73_client\Lib\librfm73_client.a(rfm.o)
str                 0x4               C:\LPC1114_GIT\core\Lib\libcore.a(printf.o)
rx_packet           0x21              C:\LPC1114_GIT\rfm73_client\Lib\librfm73_client.a(rfm.o)
len                 0x1               C:\LPC1114_GIT\rfm73_client\Lib\librfm73_client.a(client_rfm.o)

Discarded input sections

 .text          0x00000000        0x0 ./src/cr_startup_lpc11xx.o
 .data          0x00000000        0x0 ./src/cr_startup_lpc11xx.o
 .bss           0x00000000        0x0 ./src/cr_startup_lpc11xx.o
 .text          0x00000000        0x0 ./src/crp.o
 .data          0x00000000        0x0 ./src/crp.o
 .bss           0x00000000        0x0 ./src/crp.o
 .crp           0x00000000        0x4 ./src/crp.o
 .text          0x00000000        0x0 ./src/ext.o
 .data          0x00000000        0x0 ./src/ext.o
 .bss           0x00000000        0x0 ./src/ext.o
 .text          0x00000000        0x0 ./src/irq_handlers.o
 .data          0x00000000        0x0 ./src/irq_handlers.o
 .bss           0x00000000        0x0 ./src/irq_handlers.o
 .rodata.LPC_GPIO
                0x00000000       0x10 ./src/irq_handlers.o
 .text.IntDefaultHandler
                0x00000000       0x18 ./src/irq_handlers.o
 .text          0x00000000        0x0 ./src/main.o
Memory Configuration

Name             Origin             Length             Attributes
MFlash32         0x00000000         0x00008000         xr
RamLoc8          0x10000000         0x00002000         xrw
*default*        0x00000000         0xffffffff

Linker script and memory map

LOAD ./src/cr_startup_lpc11xx.o
LOAD ./src/crp.o
LOAD ./src/ext.o
LOAD ./src/irq_handlers.o
LOAD ./src/main.o
LOAD ./src/temp.o
LOAD C:\LPC1114_GIT\rfm73_client\Lib\librfm73_client.a
LOAD C:\LPC1114_GIT\core\Lib\libcore.a
LOAD C:\LPC1114_GIT\CMSIS_CORE_LPC11xx\Debug\libCMSIS_CORE_LPC11xx.a
START GROUP
LOAD c:/nxp/lpcxpresso_6.1.0_164/lpcxpresso/tools/bin/../lib/gcc/arm-none-eabi/4.6.2/../../../../arm-none-eabi/lib/armv6-m\libcr_c.a
LOAD c:/nxp/lpcxpresso_6.1.0_164/lpcxpresso/tools/bin/../lib/gcc/arm-none-eabi/4.6.2/armv6-m\libcr_eabihelpers.a
END GROUP
                0x00008000                __top_MFlash32 = 0x8000
                0x10002000                __top_RamLoc8 = 0x10002000

.text           0x00000000     0x32ac
 FILL mask 0xff
                0x00000000                __vectors_start__ = ABSOLUTE (.)
 *(.isr_vector)
 .isr_vector    0x00000000       0xc0 ./src/cr_startup_lpc11xx.o
                0x00000000                g_pfnVectors
                0x000000c0                . = ALIGN (0x4)
                0x000000c0                __section_table_start = .
                0x000000c0                __data_section_table = .
                0x000000c0        0x4 LONG 0x32ac LOADADDR (.data)
                0x000000c4        0x4 LONG 0x10000000 ADDR (.data)
                0x000000c8        0x4 LONG 0x54 SIZEOF (.data)
                0x000000cc                __data_section_table_end = .
                0x000000cc                __bss_section_table = .
                0x000000cc        0x4 LONG 0x10000054 ADDR (.bss)
                0x000000d0        0x4 LONG 0x180 SIZEOF (.bss)
                0x000000d4                __bss_section_table_end = .
                0x000000d4                __section_table_end = .
 *(.after_vectors*)
 .after_vectors
                0x000000d4      0x14c ./src/cr_startup_lpc11xx.o
                0x000000d4                data_init
                0x00000118                bss_init
                0x0000014c                ResetISR
                0x000001d8                NMI_Handler
                0x000001f0                SVC_Handler
                0x000001fc                PendSV_Handler
                0x00000208                SysTick_Handler
                0x00000214                SSP0_IRQHandler
                0x00000214                CAN_IRQHandler
                0x00000214                TIMER32_1_IRQHandler
                0x00000214                ADC_IRQHandler
                0x00000214                PIOINT2_IRQHandler
                0x00000214                BOD_IRQHandler
                0x00000214                PIOINT0_IRQHandler
                0x00000214                I2C_IRQHandler
                0x00000214                TIMER16_1_IRQHandler
                0x00000214                TIMER32_0_IRQHandler
 *(.text*)
 .text.NVIC_SystemReset
                0x00000220       0x1c ./src/cr_startup_lpc11xx.o
 .text.ext_init
                0x0000023c       0x20 ./src/ext.o
                0x0000023c                ext_init
 .text.ext_int  0x0000025c       0x1c ./src/ext.o
                0x0000025c                ext_int
 .text.NVIC_SystemReset
                0x00000278       0x1c ./src/irq_handlers.o
 .text.HardFault_Handler
                0x00000294       0x18 ./src/irq_handlers.o
                0x00000294                HardFault_Handler
 .text.PIOINT1_IRQHandler
                0x000002ac       0x18 ./src/irq_handlers.o
                0x000002ac                PIOINT1_IRQHandler
 .text.PIOINT3_IRQHandler
                0x000002c4       0x18 ./src/irq_handlers.o
                0x000002c4                PIOINT3_IRQHandler
 .text.SSP1_IRQHandler
                0x000002dc       0x20 ./src/irq_handlers.o
                0x000002dc                SSP1_IRQHandler
 .text.tasks_init
                0x000002fc       0x10 ./src/main.o
                0x000002fc                tasks_init
 .text.do_tasks
                0x0000030c       0xac ./src/main.o
                0x0000030c                do_tasks
 .text.main     0x000003b8      0x144 ./src/main.o
                0x000003b8                main
 .text.NVIC_EnableIRQ
                0x000004fc       0x2c C:\LPC1114_GIT\rfm73_client\Lib\librfm73_client.a(client_rfm.o)
 .text.recv_callback
                0x00000528      0x15c C:\LPC1114_GIT\rfm73_client\Lib\librfm73_client.a(client_rfm.o)
                0x00000528                recv_callback
 .text.rfc_init
                0x00000684       0xb8 C:\LPC1114_GIT\rfm73_client\Lib\librfm73_client.a(client_rfm.o)
                0x00000684                rfc_init
 .text.rfc_send
                0x0000073c       0xbc C:\LPC1114_GIT\rfm73_client\Lib\librfm73_client.a(client_rfm.o)
                0x0000073c                rfc_send
 .text.rfc_guarant_send
                0x000007f8       0x74 C:\LPC1114_GIT\rfm73_client\Lib\librfm73_client.a(client_rfm.o)
                0x000007f8                rfc_guarant_send
 .text.rfc_config
                0x0000086c       0x58 C:\LPC1114_GIT\rfm73_client\Lib\librfm73_client.a(client_rfm.o)
                0x0000086c                rfc_config
 .text.rfm_readn
                0x000008c4       0x5c C:\LPC1114_GIT\rfm73_client\Lib\librfm73_client.a(rfm.o)
                0x000008c4                rfm_readn
 .text.rfm_read
                0x00000920       0x48 C:\LPC1114_GIT\rfm73_client\Lib\librfm73_client.a(rfm.o)
                0x00000920                rfm_read
 .text.rfm_writen
                0x00000968       0x64 C:\LPC1114_GIT\rfm73_client\Lib\librfm73_client.a(rfm.o)
                0x00000968                rfm_writen
 .text.rfm_write
                0x000009cc       0x44 C:\LPC1114_GIT\rfm73_client\Lib\librfm73_client.a(rfm.o)
                0x000009cc                rfm_write
 .text.rfm_switch_banks
                0x00000a10       0x48 C:\LPC1114_GIT\rfm73_client\Lib\librfm73_client.a(rfm.o)
 .text.rfm_write_payload
                0x00000a58       0x9c C:\LPC1114_GIT\rfm73_client\Lib\librfm73_client.a(rfm.o)
                0x00000a58                rfm_write_payload
 .text.rfm_read_payload
                0x00000af4       0x9c C:\LPC1114_GIT\rfm73_client\Lib\librfm73_client.a(rfm.o)
                0x00000af4                rfm_read_payload
 .text.rfm_flush_tx
                0x00000b90       0x18 C:\LPC1114_GIT\rfm73_client\Lib\librfm73_client.a(rfm.o)
                0x00000b90                rfm_flush_tx
 .text.rfm_flush_rx
                0x00000ba8       0x18 C:\LPC1114_GIT\rfm73_client\Lib\librfm73_client.a(rfm.o)
                0x00000ba8                rfm_flush_rx
 .text.rfm_set_channel
                0x00000bc0       0x20 C:\LPC1114_GIT\rfm73_client\Lib\librfm73_client.a(rfm.o)
                0x00000bc0                rfm_set_channel
 .text.rfm_get_status
                0x00000be0       0x24 C:\LPC1114_GIT\rfm73_client\Lib\librfm73_client.a(rfm.o)
                0x00000be0                rfm_get_status
 .text.rfm_int  0x00000c04      0x10c C:\LPC1114_GIT\rfm73_client\Lib\librfm73_client.a(rfm.o)
                0x00000c04                rfm_int
 .text.rfm_init
                0x00000d10      0x130 C:\LPC1114_GIT\rfm73_client\Lib\librfm73_client.a(rfm.o)
                0x00000d10                rfm_init
 .text.rfm_listen
                0x00000e40       0x6c C:\LPC1114_GIT\rfm73_client\Lib\librfm73_client.a(rfm.o)
                0x00000e40                rfm_listen
 .text.rfm_powerup
                0x00000eac       0x54 C:\LPC1114_GIT\rfm73_client\Lib\librfm73_client.a(rfm.o)
                0x00000eac                rfm_powerup
 .text.rfm_set_rx_pipes
                0x00000f00       0x84 C:\LPC1114_GIT\rfm73_client\Lib\librfm73_client.a(rfm.o)
                0x00000f00                rfm_set_rx_pipes
 .text.rfm_set_pipe_addr
                0x00000f84       0x60 C:\LPC1114_GIT\rfm73_client\Lib\librfm73_client.a(rfm.o)
                0x00000f84                rfm_set_pipe_addr
 .text.rfm_set_tx_addr
                0x00000fe4       0x28 C:\LPC1114_GIT\rfm73_client\Lib\librfm73_client.a(rfm.o)
                0x00000fe4                rfm_set_tx_addr
 .text.rfm_send
                0x0000100c       0x54 C:\LPC1114_GIT\rfm73_client\Lib\librfm73_client.a(rfm.o)
                0x0000100c                rfm_send
 .text.rfm_set_rx_callback
                0x00001060       0x18 C:\LPC1114_GIT\rfm73_client\Lib\librfm73_client.a(rfm.o)
                0x00001060                rfm_set_rx_callback
 .text._wait    0x00001078       0x14 C:\LPC1114_GIT\rfm73_client\Lib\librfm73_client.a(compat.o)
                0x00001078                _wait
 .text._spi_tx  0x0000108c       0x1c C:\LPC1114_GIT\rfm73_client\Lib\librfm73_client.a(compat.o)
                0x0000108c                _spi_tx
 .text._spi_rx  0x000010a8       0x14 C:\LPC1114_GIT\rfm73_client\Lib\librfm73_client.a(compat.o)
                0x000010a8                _spi_rx
 .text._radio_enable
                0x000010bc        0xc C:\LPC1114_GIT\rfm73_client\Lib\librfm73_client.a(compat.o)
                0x000010bc                _radio_enable
 .text._radio_disable
                0x000010c8        0xc C:\LPC1114_GIT\rfm73_client\Lib\librfm73_client.a(compat.o)
                0x000010c8                _radio_disable
 .text._rfm_select
                0x000010d4        0xc C:\LPC1114_GIT\rfm73_client\Lib\librfm73_client.a(compat.o)
                0x000010d4                _rfm_select
 .text._rfm_release
                0x000010e0        0xc C:\LPC1114_GIT\rfm73_client\Lib\librfm73_client.a(compat.o)
                0x000010e0                _rfm_release
 .text._compat_init
                0x000010ec        0xc C:\LPC1114_GIT\rfm73_client\Lib\librfm73_client.a(compat.o)
                0x000010ec                _compat_init
 .text.NVIC_EnableIRQ
                0x000010f8       0x2c C:\LPC1114_GIT\core\Lib\libcore.a(printf.o)
 .text.NVIC_DisableIRQ
                0x00001124       0x30 C:\LPC1114_GIT\core\Lib\libcore.a(printf.o)
 .text.uart_init
                0x00001154       0xc0 C:\LPC1114_GIT\core\Lib\libcore.a(printf.o)
                0x00001154                uart_init
 .text.uart_48mhz
                0x00001214       0x4c C:\LPC1114_GIT\core\Lib\libcore.a(printf.o)
                0x00001214                uart_48mhz
 .text.uart_12mhz
                0x00001260       0x4c C:\LPC1114_GIT\core\Lib\libcore.a(printf.o)
                0x00001260                uart_12mhz
 .text.uart_8khz
                0x000012ac       0x20 C:\LPC1114_GIT\core\Lib\libcore.a(printf.o)
                0x000012ac                uart_8khz
 .text.uart_putchar
                0x000012cc       0x30 C:\LPC1114_GIT\core\Lib\libcore.a(printf.o)
                0x000012cc                uart_putchar
 .text.printf   0x000012fc       0x40 C:\LPC1114_GIT\core\Lib\libcore.a(printf.o)
                0x000012fc                printf
 .text.UART_IRQHandler
                0x0000133c      0x10c C:\LPC1114_GIT\core\Lib\libcore.a(printf.o)
                0x0000133c                UART_IRQHandler
 .text.printf_format_nofloat
                0x00001448      0x2dc C:\LPC1114_GIT\core\Lib\libcore.a(small_printf_nofloat.o)
                0x00001448                printf_format_nofloat
 .text.prints   0x00001724       0xb4 C:\LPC1114_GIT\core\Lib\libcore.a(small_printf_support.o)
                0x00001724                prints
 .text.printi   0x000017d8       0xf0 C:\LPC1114_GIT\core\Lib\libcore.a(small_printf_support.o)
                0x000017d8                printi
 .text.correct_vbatt
                0x000018c8      0x168 C:\LPC1114_GIT\core\Lib\libcore.a(adc_utils.o)
                0x000018c8                correct_vbatt
 .text.adc_init
                0x00001a30       0x14 C:\LPC1114_GIT\core\Lib\libcore.a(adc_utils.o)
                0x00001a30                adc_init
 .text.adc_vbat
                0x00001a44       0x28 C:\LPC1114_GIT\core\Lib\libcore.a(adc_utils.o)
                0x00001a44                adc_vbat
 .text.GPIOInit
                0x00001a6c       0x1c C:\LPC1114_GIT\core\Lib\libcore.a(gpio.o)
                0x00001a6c                GPIOInit
 .text.GPIOSetInterrupt
                0x00001a88      0x334 C:\LPC1114_GIT\core\Lib\libcore.a(gpio.o)
                0x00001a88                GPIOSetInterrupt
 .text.GPIOIntEnable
                0x00001dbc       0xa8 C:\LPC1114_GIT\core\Lib\libcore.a(gpio.o)
                0x00001dbc                GPIOIntEnable
 .text.GPIOIntDisable
                0x00001e64       0xa8 C:\LPC1114_GIT\core\Lib\libcore.a(gpio.o)
                0x00001e64                GPIOIntDisable
 .text.GPIOIntStatus
                0x00001f0c       0xb4 C:\LPC1114_GIT\core\Lib\libcore.a(gpio.o)
                0x00001f0c                GPIOIntStatus
 .text.GPIOSetValue
                0x00001fc0       0x38 C:\LPC1114_GIT\core\Lib\libcore.a(gpio.o)
                0x00001fc0                GPIOSetValue
 .text.GPIOSetDir
                0x00001ff8       0x74 C:\LPC1114_GIT\core\Lib\libcore.a(gpio.o)
                0x00001ff8                GPIOSetDir
 .text.led_init
                0x0000206c       0xc8 C:\LPC1114_GIT\core\Lib\libcore.a(leds.o)
                0x0000206c                led_init
 .text.led_on   0x00002134       0x38 C:\LPC1114_GIT\core\Lib\libcore.a(leds.o)
                0x00002134                led_on
 .text.led_off  0x0000216c       0x38 C:\LPC1114_GIT\core\Lib\libcore.a(leds.o)
                0x0000216c                led_off
 .text.NVIC_EnableIRQ
                0x000021a4       0x2c C:\LPC1114_GIT\core\Lib\libcore.a(pwr.o)
 .text.NVIC_DisableIRQ
                0x000021d0       0x30 C:\LPC1114_GIT\core\Lib\libcore.a(pwr.o)
 .text.NVIC_ClearPendingIRQ
                0x00002200       0x34 C:\LPC1114_GIT\core\Lib\libcore.a(pwr.o)
 .text.down_gpio
                0x00002234      0x184 C:\LPC1114_GIT\core\Lib\libcore.a(pwr.o)
 .text.up_gpio  0x000023b8      0x128 C:\LPC1114_GIT\core\Lib\libcore.a(pwr.o)
 .text.pwr_init
                0x000024e0       0x2c C:\LPC1114_GIT\core\Lib\libcore.a(pwr.o)
                0x000024e0                pwr_init
 .text.asm_wait
                0x0000250c       0x5c C:\LPC1114_GIT\core\Lib\libcore.a(pwr.o)
                0x0000250c                asm_wait
 .text.pwr_clkout
                0x00002568       0x94 C:\LPC1114_GIT\core\Lib\libcore.a(pwr.o)
                0x00002568                pwr_clkout
 .text.pwr_switch_to_12MHz
                0x000025fc       0x58 C:\LPC1114_GIT\core\Lib\libcore.a(pwr.o)
                0x000025fc                pwr_switch_to_12MHz
 .text.pwr_switch_to_8KHz
                0x00002654       0x54 C:\LPC1114_GIT\core\Lib\libcore.a(pwr.o)
                0x00002654                pwr_switch_to_8KHz
 .text.pwr_wdt_init
                0x000026a8       0x8c C:\LPC1114_GIT\core\Lib\libcore.a(pwr.o)
                0x000026a8                pwr_wdt_init
 .text.pwr_set_timer
                0x00002734       0x90 C:\LPC1114_GIT\core\Lib\libcore.a(pwr.o)
 .text.pwr_deepsleep
                0x000027c4       0xf4 C:\LPC1114_GIT\core\Lib\libcore.a(pwr.o)
                0x000027c4                pwr_deepsleep
 .text.pwr_is_event_wake
                0x000028b8       0x20 C:\LPC1114_GIT\core\Lib\libcore.a(pwr.o)
                0x000028b8                pwr_is_event_wake
 .text.WAKEUP_IRQHandler
                0x000028d8       0x68 C:\LPC1114_GIT\core\Lib\libcore.a(pwr.o)
                0x000028d8                WAKEUP_IRQHandler
 .text.WDT_IRQHandler
                0x00002940       0x48 C:\LPC1114_GIT\core\Lib\libcore.a(pwr.o)
                0x00002940                WDT_IRQHandler
 .text.nrf_start
                0x00002988       0x14 C:\LPC1114_GIT\core\Lib\libcore.a(spi.o)
                0x00002988                nrf_start
 .text.nrf_stop
                0x0000299c       0x14 C:\LPC1114_GIT\core\Lib\libcore.a(spi.o)
                0x0000299c                nrf_stop
 .text.nrfspi_init
                0x000029b0      0x148 C:\LPC1114_GIT\core\Lib\libcore.a(spi.o)
                0x000029b0                nrfspi_init
 .text.nrfspi_txrx
                0x00002af8       0x44 C:\LPC1114_GIT\core\Lib\libcore.a(spi.o)
                0x00002af8                nrfspi_txrx
 .text.nrfspi_select
                0x00002b3c       0x10 C:\LPC1114_GIT\core\Lib\libcore.a(spi.o)
                0x00002b3c                nrfspi_select
 .text.nrfspi_release
                0x00002b4c       0x10 C:\LPC1114_GIT\core\Lib\libcore.a(spi.o)
                0x00002b4c                nrfspi_release
 .text.ADCInit  0x00002b5c      0x128 C:\LPC1114_GIT\core\Lib\libcore.a(adc.o)
                0x00002b5c                ADCInit
 .text.ADCRead  0x00002c84       0x9c C:\LPC1114_GIT\core\Lib\libcore.a(adc.o)
                0x00002c84                ADCRead
 .text.NVIC_EnableIRQ
                0x00002d20       0x2c C:\LPC1114_GIT\core\Lib\libcore.a(counter.o)
 .text.NVIC_DisableIRQ
                0x00002d4c       0x30 C:\LPC1114_GIT\core\Lib\libcore.a(counter.o)
 .text.NVIC_ClearPendingIRQ
                0x00002d7c       0x34 C:\LPC1114_GIT\core\Lib\libcore.a(counter.o)
 .text.TIMER16_0_IRQHandler
                0x00002db0       0x40 C:\LPC1114_GIT\core\Lib\libcore.a(counter.o)
                0x00002db0                TIMER16_0_IRQHandler
 .text._counter_init
                0x00002df0       0x4c C:\LPC1114_GIT\core\Lib\libcore.a(counter.o)
 .text.counter_init_12mhz
                0x00002e3c       0x1c C:\LPC1114_GIT\core\Lib\libcore.a(counter.o)
                0x00002e3c                counter_init_12mhz
 .text.counter_stop
                0x00002e58       0x34 C:\LPC1114_GIT\core\Lib\libcore.a(counter.o)
                0x00002e58                counter_stop
 .text.SystemInit
                0x00002e8c       0xe4 C:\LPC1114_GIT\CMSIS_CORE_LPC11xx\Debug\libCMSIS_CORE_LPC11xx.a(system_LPC11xx.o)
                0x00002e8c                SystemInit
 .text.memcpy   0x00002f70        0x8 c:/nxp/lpcxpresso_6.1.0_164/lpcxpresso/tools/bin/../lib/gcc/arm-none-eabi/4.6.2/../../../../arm-none-eabi/lib/armv6-m\libcr_c.a(memcpy.o)
                0x00002f70                memcpy
 .text.memset   0x00002f78        0x8 c:/nxp/lpcxpresso_6.1.0_164/lpcxpresso/tools/bin/../lib/gcc/arm-none-eabi/4.6.2/../../../../arm-none-eabi/lib/armv6-m\libcr_c.a(memset.o)
                0x00002f78                memset
 .text.__weak_main
                0x00002f80        0x8 c:/nxp/lpcxpresso_6.1.0_164/lpcxpresso/tools/bin/../lib/gcc/arm-none-eabi/4.6.2/../../../../arm-none-eabi/lib/armv6-m\libcr_c.a(__weak__main.o)
                0x00002f80                __weak_main
                0x00002f80                __main
 .text.__aeabi_division_uidivmod
                0x00002f88       0x72 c:/nxp/lpcxpresso_6.1.0_164/lpcxpresso/tools/bin/../lib/gcc/arm-none-eabi/4.6.2/armv6-m\libcr_eabihelpers.a(division.o)
                0x00002f88                __aeabi_uidivmod
                0x00002f88                __aeabi_uidiv
 .text.__aeabi_division_idiv0
                0x00002ffa        0x2 c:/nxp/lpcxpresso_6.1.0_164/lpcxpresso/tools/bin/../lib/gcc/arm-none-eabi/4.6.2/armv6-m\libcr_eabihelpers.a(division.o)
                0x00002ffa                __aeabi_idiv0
 .text.__aeabi_memcpy
                0x00002ffc       0x2c c:/nxp/lpcxpresso_6.1.0_164/lpcxpresso/tools/bin/../lib/gcc/arm-none-eabi/4.6.2/armv6-m\libcr_eabihelpers.a(memcpy.o)
                0x00002ffc                __aeabi_memcpy4
                0x00002ffc                __aeabi_memcpy8
                0x00002ffc                __aeabi_memcpy
 .text.__aeabi_memset_lowlevel
                0x00003028       0x2a c:/nxp/lpcxpresso_6.1.0_164/lpcxpresso/tools/bin/../lib/gcc/arm-none-eabi/4.6.2/armv6-m\libcr_eabihelpers.a(memcpy.o)
                0x00003028                __aeabi_lowlevel_memset
 *(.rodata .rodata.*)
 *fill*         0x00003052        0x2 00
 .rodata.LPC_GPIO
                0x00003054       0x10 ./src/ext.o
 .rodata        0x00003064       0xa4 ./src/irq_handlers.o
 .rodata        0x00003108       0x98 ./src/main.o
 .rodata        0x000031a0       0x70 C:\LPC1114_GIT\rfm73_client\Lib\librfm73_client.a(client_rfm.o)
 .rodata        0x00003210        0x8 C:\LPC1114_GIT\core\Lib\libcore.a(small_printf_nofloat.o)
 .rodata.printf_format_nofloat
                0x00003218       0x84 C:\LPC1114_GIT\core\Lib\libcore.a(small_printf_nofloat.o)
 .rodata.LPC_GPIO
                0x0000329c       0x10 C:\LPC1114_GIT\core\Lib\libcore.a(gpio.o)
                0x000032ac                . = ALIGN (0x4)

.glue_7         0x000032ac        0x0
 .glue_7        0x00000000        0x0 linker stubs

.glue_7t        0x000032ac        0x0
 .glue_7t       0x00000000        0x0 linker stubs

.vfp11_veneer   0x000032ac        0x0
 .vfp11_veneer  0x00000000        0x0 linker stubs

.v4_bx          0x000032ac        0x0
 .v4_bx         0x00000000        0x0 linker stubs

.ARM.extab
 *(.ARM.extab* .gnu.linkonce.armextab.*)
                0x000032ac                __exidx_start = .

.ARM.exidx
 *(.ARM.exidx* .gnu.linkonce.armexidx.*)
                0x000032ac                __exidx_end = .
                0x000032ac                _etext = .

.uninit_RESERVED
                0x10000000        0x0
 *(.bss.$RESERVED*)
                0x10000000                . = ALIGN (0x4)
                0x10000000                _end_uninit_RESERVED = .

.data           0x10000000       0x54 load address 0x000032ac
 FILL mask 0xff
                0x10000000                _data = .
 *(vtable)
 *(.data*)
 .data.addr     0x10000000        0x2 ./src/main.o
                0x10000000                addr
 *fill*         0x10000002        0x2 00
 .data.ask.4490
                0x10000004        0x4 C:\LPC1114_GIT\rfm73_client\Lib\librfm73_client.a(client_rfm.o)
 .data.Reg00    0x10000008        0x4 C:\LPC1114_GIT\rfm73_client\Lib\librfm73_client.a(rfm.o)
                0x10000008                Reg00
 .data.Reg01    0x1000000c        0x4 C:\LPC1114_GIT\rfm73_client\Lib\librfm73_client.a(rfm.o)
                0x1000000c                Reg01
 .data.Reg02    0x10000010        0x4 C:\LPC1114_GIT\rfm73_client\Lib\librfm73_client.a(rfm.o)
                0x10000010                Reg02
 .data.Reg03    0x10000014        0x4 C:\LPC1114_GIT\rfm73_client\Lib\librfm73_client.a(rfm.o)
                0x10000014                Reg03
 .data.Reg04    0x10000018        0x4 C:\LPC1114_GIT\rfm73_client\Lib\librfm73_client.a(rfm.o)
                0x10000018                Reg04
 .data.Reg05    0x1000001c        0x4 C:\LPC1114_GIT\rfm73_client\Lib\librfm73_client.a(rfm.o)
                0x1000001c                Reg05
 .data.Reg0C    0x10000020        0x4 C:\LPC1114_GIT\rfm73_client\Lib\librfm73_client.a(rfm.o)
                0x10000020                Reg0C
 .data.Reg0D    0x10000024        0x4 C:\LPC1114_GIT\rfm73_client\Lib\librfm73_client.a(rfm.o)
                0x10000024                Reg0D
 .data.Reg0E    0x10000028        0xc C:\LPC1114_GIT\rfm73_client\Lib\librfm73_client.a(rfm.o)
                0x10000028                Reg0E
 .data.pipe_addresses
                0x10000034        0x8 C:\LPC1114_GIT\rfm73_client\Lib\librfm73_client.a(rfm.o)
                0x10000034                pipe_addresses
 .data.pipe_payloads
                0x1000003c        0x8 C:\LPC1114_GIT\rfm73_client\Lib\librfm73_client.a(rfm.o)
                0x1000003c                pipe_payloads
 .data.led_ports
                0x10000044        0x4 C:\LPC1114_GIT\core\Lib\libcore.a(leds.o)
                0x10000044                led_ports
 .data.led_pins
                0x10000048        0x4 C:\LPC1114_GIT\core\Lib\libcore.a(leds.o)
                0x10000048                led_pins
 .data.ms_cycles
                0x1000004c        0x4 C:\LPC1114_GIT\core\Lib\libcore.a(pwr.o)
                0x1000004c                ms_cycles
 .data.SystemCoreClock
                0x10000050        0x4 C:\LPC1114_GIT\CMSIS_CORE_LPC11xx\Debug\libCMSIS_CORE_LPC11xx.a(system_LPC11xx.o)
                0x10000050                SystemCoreClock
                0x10000054                . = ALIGN (0x4)
                0x10000054                _edata = .

.bss            0x10000054      0x180 load address 0x00003300
                0x10000054                _bss = .
 *(.bss*)
 .bss.event_wake
                0x10000054        0x1 ./src/main.o
                0x10000054                event_wake
 .bss.retries   0x10000055        0x1 ./src/main.o
                0x10000055                retries
 *fill*         0x10000056        0x2 00
 .bss.send.4295
                0x10000058       0x20 ./src/main.o
 .bss.packet.4491
                0x10000078       0x20 C:\LPC1114_GIT\rfm73_client\Lib\librfm73_client.a(client_rfm.o)
 .bss.ready_bytes
                0x10000098        0x1 C:\LPC1114_GIT\core\Lib\libcore.a(printf.o)
                0x10000098                ready_bytes
 .bss.rx_ready  0x10000099        0x1 C:\LPC1114_GIT\core\Lib\libcore.a(printf.o)
                0x10000099                rx_ready
 .bss.disabled  0x1000009a        0x1 C:\LPC1114_GIT\core\Lib\libcore.a(printf.o)
                0x1000009a                disabled
 *fill*         0x1000009b        0x1 00
 .bss.wdt_flag  0x1000009c        0x4 C:\LPC1114_GIT\core\Lib\libcore.a(pwr.o)
                0x1000009c                wdt_flag
 .bss._seconds  0x100000a0        0x4 C:\LPC1114_GIT\core\Lib\libcore.a(counter.o)
                0x100000a0                _seconds
 .bss._mseconds
                0x100000a4        0x4 C:\LPC1114_GIT\core\Lib\libcore.a(counter.o)
                0x100000a4                _mseconds
 *(COMMON)
 COMMON         0x100000a8        0x8 C:\LPC1114_GIT\rfm73_client\Lib\librfm73_client.a(client_rfm.o)
                0x100000a8                self
                0x100000aa                ack
                0x100000ac                pipe
                0x100000af                len
 COMMON         0x100000b0       0x31 C:\LPC1114_GIT\rfm73_client\Lib\librfm73_client.a(rfm.o)
                0x100000b0                prev_status
                0x100000b4                tx_callb
                0x100000b8                tx_done
                0x100000bc                rx_callb
                0x100000c0                rx_packet
 *fill*         0x100000e1        0x3 00
 COMMON         0x100000e4       0xcc C:\LPC1114_GIT\core\Lib\libcore.a(printf.o)
                0x100000e4                buffer
                0x100001ac                str
 COMMON         0x100001b0        0x4 C:\LPC1114_GIT\core\Lib\libcore.a(adc_utils.o)
                0x100001b0                vbatt
                0x100001b2                _vbatt
 COMMON         0x100001b4       0x20 C:\LPC1114_GIT\core\Lib\libcore.a(adc.o)
                0x100001b4                ADCValue
                0x100001d4                . = ALIGN (0x4)
                0x100001d4                _ebss = .
                0x100001d4                PROVIDE (end, .)

.noinit         0x100001d4        0x0 load address 0x00003300
                0x100001d4                _noinit = .
 *(.noinit*)
                0x100001d4                . = ALIGN (0x4)
                0x100001d4                _end_noinit = .
                0x100001d4                PROVIDE (_pvHeapStart, .)
                0x10002000                PROVIDE (_vStackTop, (__top_RamLoc8 - 0x0))
OUTPUT(endpoint.axf elf32-littlearm)

.debug_info     0x00000000     0x865d
 .debug_info    0x00000000      0x398 ./src/cr_startup_lpc11xx.o
 .debug_info    0x00000398       0x48 ./src/crp.o
 .debug_info    0x000003e0      0x54e ./src/ext.o
 .debug_info    0x0000092e      0x408 ./src/irq_handlers.o
 .debug_info    0x00000d36      0x1b1 ./src/main.o
 .debug_info    0x00000ee7      0x223 ./src/temp.o
 .debug_info    0x0000110a      0xa29 C:\LPC1114_GIT\rfm73_client\Lib\librfm73_client.a(client_rfm.o)
 .debug_info    0x00001b33      0x94b C:\LPC1114_GIT\rfm73_client\Lib\librfm73_client.a(rfm.o)
 .debug_info    0x0000247e      0x151 C:\LPC1114_GIT\rfm73_client\Lib\librfm73_client.a(compat.o)
 .debug_info    0x000025cf      0xf20 C:\LPC1114_GIT\core\Lib\libcore.a(printf.o)
 .debug_info    0x000034ef      0x24b C:\LPC1114_GIT\core\Lib\libcore.a(small_printf_nofloat.o)
 .debug_info    0x0000373a      0x2b0 C:\LPC1114_GIT\core\Lib\libcore.a(small_printf_support.o)
 .debug_info    0x000039ea      0x136 C:\LPC1114_GIT\core\Lib\libcore.a(adc_utils.o)
 .debug_info    0x00003b20      0x814 C:\LPC1114_GIT\core\Lib\libcore.a(gpio.o)
 .debug_info    0x00004334      0x695 C:\LPC1114_GIT\core\Lib\libcore.a(leds.o)
 .debug_info    0x000049c9     0x1162 C:\LPC1114_GIT\core\Lib\libcore.a(pwr.o)
 .debug_info    0x00005b2b      0xa0b C:\LPC1114_GIT\core\Lib\libcore.a(spi.o)
 .debug_info    0x00006536      0xa7b C:\LPC1114_GIT\core\Lib\libcore.a(ssp1.o)
 .debug_info    0x00006fb1      0x8e6 C:\LPC1114_GIT\core\Lib\libcore.a(adc.o)
 .debug_info    0x00007897      0x8e4 C:\LPC1114_GIT\core\Lib\libcore.a(counter.o)
 .debug_info    0x0000817b      0x4e2 C:\LPC1114_GIT\CMSIS_CORE_LPC11xx\Debug\libCMSIS_CORE_LPC11xx.a(system_LPC11xx.o)

.debug_abbrev   0x00000000     0x1bcc
 .debug_abbrev  0x00000000      0x151 ./src/cr_startup_lpc11xx.o
 .debug_abbrev  0x00000151       0x39 ./src/crp.o
 .debug_abbrev  0x0000018a      0x126 ./src/ext.o
 .debug_abbrev  0x000002b0      0x159 ./src/irq_handlers.o
 .debug_abbrev  0x00000409       0xe6 ./src/main.o
 .debug_abbrev  0x000004ef      0x11b ./src/temp.o
 .debug_abbrev  0x0000060a      0x1ed C:\LPC1114_GIT\rfm73_client\Lib\librfm73_client.a(client_rfm.o)
 .debug_abbrev  0x000007f7      0x1de C:\LPC1114_GIT\rfm73_client\Lib\librfm73_client.a(rfm.o)
 .debug_abbrev  0x000009d5       0x8d C:\LPC1114_GIT\rfm73_client\Lib\librfm73_client.a(compat.o)
 .debug_abbrev  0x00000a62      0x25c C:\LPC1114_GIT\core\Lib\libcore.a(printf.o)
 .debug_abbrev  0x00000cbe      0x141 C:\LPC1114_GIT\core\Lib\libcore.a(small_printf_nofloat.o)
 .debug_abbrev  0x00000dff       0xeb C:\LPC1114_GIT\core\Lib\libcore.a(small_printf_support.o)
 .debug_abbrev  0x00000eea       0xc4 C:\LPC1114_GIT\core\Lib\libcore.a(adc_utils.o)
 .debug_abbrev  0x00000fae      0x19c C:\LPC1114_GIT\core\Lib\libcore.a(gpio.o)
 .debug_abbrev  0x0000114a      0x170 C:\LPC1114_GIT\core\Lib\libcore.a(leds.o)
 .debug_abbrev  0x000012ba      0x263 C:\LPC1114_GIT\core\Lib\libcore.a(pwr.o)
 .debug_abbrev  0x0000151d      0x16e C:\LPC1114_GIT\core\Lib\libcore.a(spi.o)
 .debug_abbrev  0x0000168b      0x1ae C:\LPC1114_GIT\core\Lib\libcore.a(ssp1.o)
 .debug_abbrev  0x00001839      0x150 C:\LPC1114_GIT\core\Lib\libcore.a(adc.o)
 .debug_abbrev  0x00001989      0x157 C:\LPC1114_GIT\core\Lib\libcore.a(counter.o)
 .debug_abbrev  0x00001ae0       0xec C:\LPC1114_GIT\CMSIS_CORE_LPC11xx\Debug\libCMSIS_CORE_LPC11xx.a(system_LPC11xx.o)

.debug_loc      0x00000000     0x2014
 .debug_loc     0x00000000      0x1dc ./src/cr_startup_lpc11xx.o
 .debug_loc     0x000001dc       0x58 ./src/ext.o
 .debug_loc     0x00000234      0x108 ./src/irq_handlers.o
 .debug_loc     0x0000033c       0x9c ./src/main.o
 .debug_loc     0x000003d8       0x64 ./src/temp.o
 .debug_loc     0x0000043c      0x188 C:\LPC1114_GIT\rfm73_client\Lib\librfm73_client.a(client_rfm.o)
 .debug_loc     0x000005c4      0x668 C:\LPC1114_GIT\rfm73_client\Lib\librfm73_client.a(rfm.o)
 .debug_loc     0x00000c2c      0x178 C:\LPC1114_GIT\rfm73_client\Lib\librfm73_client.a(compat.o)
 .debug_loc     0x00000da4      0x330 C:\LPC1114_GIT\core\Lib\libcore.a(printf.o)
 .debug_loc     0x000010d4       0xc2 C:\LPC1114_GIT\core\Lib\libcore.a(small_printf_nofloat.o)
 .debug_loc     0x00001196       0xfa C:\LPC1114_GIT\core\Lib\libcore.a(small_printf_support.o)
 .debug_loc     0x00001290       0xbc C:\LPC1114_GIT\core\Lib\libcore.a(adc_utils.o)
 .debug_loc     0x0000134c      0x224 C:\LPC1114_GIT\core\Lib\libcore.a(gpio.o)
 .debug_loc     0x00001570      0x118 C:\LPC1114_GIT\core\Lib\libcore.a(leds.o)
 .debug_loc     0x00001688      0x414 C:\LPC1114_GIT\core\Lib\libcore.a(pwr.o)
 .debug_loc     0x00001a9c      0x120 C:\LPC1114_GIT\core\Lib\libcore.a(spi.o)
 .debug_loc     0x00001bbc      0x144 C:\LPC1114_GIT\core\Lib\libcore.a(ssp1.o)
 .debug_loc     0x00001d00       0x9c C:\LPC1114_GIT\core\Lib\libcore.a(adc.o)
 .debug_loc     0x00001d9c      0x208 C:\LPC1114_GIT\core\Lib\libcore.a(counter.o)
 .debug_loc     0x00001fa4       0x70 C:\LPC1114_GIT\CMSIS_CORE_LPC11xx\Debug\libCMSIS_CORE_LPC11xx.a(system_LPC11xx.o)

.debug_aranges  0x00000000      0x6d8
 .debug_aranges
                0x00000000       0x68 ./src/cr_startup_lpc11xx.o
 .debug_aranges
                0x00000068       0x28 ./src/ext.o
 .debug_aranges
                0x00000090       0x48 ./src/irq_handlers.o
 .debug_aranges
                0x000000d8       0x30 ./src/main.o
 .debug_aranges
                0x00000108       0x28 ./src/temp.o
 .debug_aranges
                0x00000130       0x50 C:\LPC1114_GIT\rfm73_client\Lib\librfm73_client.a(client_rfm.o)
 .debug_aranges
                0x00000180      0x110 C:\LPC1114_GIT\rfm73_client\Lib\librfm73_client.a(rfm.o)
 .debug_aranges
                0x00000290       0x58 C:\LPC1114_GIT\rfm73_client\Lib\librfm73_client.a(compat.o)
 .debug_aranges
                0x000002e8       0x90 C:\LPC1114_GIT\core\Lib\libcore.a(printf.o)
 .debug_aranges
                0x00000378       0x30 C:\LPC1114_GIT\core\Lib\libcore.a(small_printf_nofloat.o)
 .debug_aranges
                0x000003a8       0x38 C:\LPC1114_GIT\core\Lib\libcore.a(small_printf_support.o)
 .debug_aranges
                0x000003e0       0x38 C:\LPC1114_GIT\core\Lib\libcore.a(adc_utils.o)
 .debug_aranges
                0x00000418       0x68 C:\LPC1114_GIT\core\Lib\libcore.a(gpio.o)
 .debug_aranges
                0x00000480       0x40 C:\LPC1114_GIT\core\Lib\libcore.a(leds.o)
 .debug_aranges
                0x000004c0       0xc0 C:\LPC1114_GIT\core\Lib\libcore.a(pwr.o)
 .debug_aranges
                0x00000580       0x48 C:\LPC1114_GIT\core\Lib\libcore.a(spi.o)
 .debug_aranges
                0x000005c8       0x48 C:\LPC1114_GIT\core\Lib\libcore.a(ssp1.o)
 .debug_aranges
                0x00000610       0x30 C:\LPC1114_GIT\core\Lib\libcore.a(adc.o)
 .debug_aranges
                0x00000640       0x70 C:\LPC1114_GIT\core\Lib\libcore.a(counter.o)
 .debug_aranges
                0x000006b0       0x28 C:\LPC1114_GIT\CMSIS_CORE_LPC11xx\Debug\libCMSIS_CORE_LPC11xx.a(system_LPC11xx.o)

.debug_ranges   0x00000000      0x598
 .debug_ranges  0x00000000       0x58 ./src/cr_startup_lpc11xx.o
 .debug_ranges  0x00000058       0x18 ./src/ext.o
 .debug_ranges  0x00000070       0x38 ./src/irq_handlers.o
 .debug_ranges  0x000000a8       0x20 ./src/main.o
 .debug_ranges  0x000000c8       0x18 ./src/temp.o
 .debug_ranges  0x000000e0       0x40 C:\LPC1114_GIT\rfm73_client\Lib\librfm73_client.a(client_rfm.o)
 .debug_ranges  0x00000120      0x100 C:\LPC1114_GIT\rfm73_client\Lib\librfm73_client.a(rfm.o)
 .debug_ranges  0x00000220       0x48 C:\LPC1114_GIT\rfm73_client\Lib\librfm73_client.a(compat.o)
 .debug_ranges  0x00000268       0x80 C:\LPC1114_GIT\core\Lib\libcore.a(printf.o)
 .debug_ranges  0x000002e8       0x20 C:\LPC1114_GIT\core\Lib\libcore.a(small_printf_nofloat.o)
 .debug_ranges  0x00000308       0x28 C:\LPC1114_GIT\core\Lib\libcore.a(small_printf_support.o)
 .debug_ranges  0x00000330       0x28 C:\LPC1114_GIT\core\Lib\libcore.a(adc_utils.o)
 .debug_ranges  0x00000358       0x58 C:\LPC1114_GIT\core\Lib\libcore.a(gpio.o)
 .debug_ranges  0x000003b0       0x30 C:\LPC1114_GIT\core\Lib\libcore.a(leds.o)
 .debug_ranges  0x000003e0       0xb0 C:\LPC1114_GIT\core\Lib\libcore.a(pwr.o)
 .debug_ranges  0x00000490       0x38 C:\LPC1114_GIT\core\Lib\libcore.a(spi.o)
 .debug_ranges  0x000004c8       0x38 C:\LPC1114_GIT\core\Lib\libcore.a(ssp1.o)
 .debug_ranges  0x00000500       0x20 C:\LPC1114_GIT\core\Lib\libcore.a(adc.o)
 .debug_ranges  0x00000520       0x60 C:\LPC1114_GIT\core\Lib\libcore.a(counter.o)
 .debug_ranges  0x00000580       0x18 C:\LPC1114_GIT\CMSIS_CORE_LPC11xx\Debug\libCMSIS_CORE_LPC11xx.a(system_LPC11xx.o)

.debug_line     0x00000000     0x5dd5
 .debug_line    0x00000000      0x41c ./src/cr_startup_lpc11xx.o
 .debug_line    0x0000041c       0xac ./src/crp.o
 .debug_line    0x000004c8      0x41b ./src/ext.o
 .debug_line    0x000008e3      0x493 ./src/irq_handlers.o
 .debug_line    0x00000d76      0x4a9 ./src/main.o
 .debug_line    0x0000121f      0x3e2 ./src/temp.o
 .debug_line    0x00001601      0x550 C:\LPC1114_GIT\rfm73_client\Lib\librfm73_client.a(client_rfm.o)
 .debug_line    0x00001b51      0x750 C:\LPC1114_GIT\rfm73_client\Lib\librfm73_client.a(rfm.o)
 .debug_line    0x000022a1      0x477 C:\LPC1114_GIT\rfm73_client\Lib\librfm73_client.a(compat.o)
 .debug_line    0x00002718      0x588 C:\LPC1114_GIT\core\Lib\libcore.a(printf.o)
 .debug_line    0x00002ca0      0x442 C:\LPC1114_GIT\core\Lib\libcore.a(small_printf_nofloat.o)
 .debug_line    0x000030e2      0x42e C:\LPC1114_GIT\core\Lib\libcore.a(small_printf_support.o)
 .debug_line    0x00003510      0x45a C:\LPC1114_GIT\core\Lib\libcore.a(adc_utils.o)
 .debug_line    0x0000396a      0x4a3 C:\LPC1114_GIT\core\Lib\libcore.a(gpio.o)
 .debug_line    0x00003e0d      0x433 C:\LPC1114_GIT\core\Lib\libcore.a(leds.o)
 .debug_line    0x00004240      0x6a2 C:\LPC1114_GIT\core\Lib\libcore.a(pwr.o)
 .debug_line    0x000048e2      0x421 C:\LPC1114_GIT\core\Lib\libcore.a(spi.o)
 .debug_line    0x00004d03      0x45e C:\LPC1114_GIT\core\Lib\libcore.a(ssp1.o)
 .debug_line    0x00005161      0x3f8 C:\LPC1114_GIT\core\Lib\libcore.a(adc.o)
 .debug_line    0x00005559      0x471 C:\LPC1114_GIT\core\Lib\libcore.a(counter.o)
 .debug_line    0x000059ca      0x40b C:\LPC1114_GIT\CMSIS_CORE_LPC11xx\Debug\libCMSIS_CORE_LPC11xx.a(system_LPC11xx.o)

.debug_macinfo  0x00000000    0x6b5af
 .debug_macinfo
                0x00000000     0x54b9 ./src/cr_startup_lpc11xx.o
 .debug_macinfo
                0x000054b9     0x2339 ./src/crp.o
 .debug_macinfo
                0x000077f2     0x5585 ./src/ext.o
 .debug_macinfo
                0x0000cd77     0x5568 ./src/irq_handlers.o
 .debug_macinfo
                0x000122df     0x5922 ./src/main.o
 .debug_macinfo
                0x00017c01     0x57c3 ./src/temp.o
 .debug_macinfo
                0x0001d3c4     0x55fd C:\LPC1114_GIT\rfm73_client\Lib\librfm73_client.a(client_rfm.o)
 .debug_macinfo
                0x000229c1     0x5b5d C:\LPC1114_GIT\rfm73_client\Lib\librfm73_client.a(rfm.o)
 .debug_macinfo
                0x0002851e     0x586b C:\LPC1114_GIT\rfm73_client\Lib\librfm73_client.a(compat.o)
 .debug_macinfo
                0x0002dd89     0x568e C:\LPC1114_GIT\core\Lib\libcore.a(printf.o)
 .debug_macinfo
                0x00033417     0x3e4e C:\LPC1114_GIT\core\Lib\libcore.a(small_printf_nofloat.o)
 .debug_macinfo
                0x00037265     0x3e4a C:\LPC1114_GIT\core\Lib\libcore.a(small_printf_support.o)
 .debug_macinfo
                0x0003b0af     0x5526 C:\LPC1114_GIT\core\Lib\libcore.a(adc_utils.o)
 .debug_macinfo
                0x000405d5     0x54b7 C:\LPC1114_GIT\core\Lib\libcore.a(gpio.o)
 .debug_macinfo
                0x00045a8c     0x551c C:\LPC1114_GIT\core\Lib\libcore.a(leds.o)
 .debug_macinfo
                0x0004afa8     0x558f C:\LPC1114_GIT\core\Lib\libcore.a(pwr.o)
 .debug_macinfo
                0x00050537     0x5799 C:\LPC1114_GIT\core\Lib\libcore.a(spi.o)
 .debug_macinfo
                0x00055cd0     0x5799 C:\LPC1114_GIT\core\Lib\libcore.a(ssp1.o)
 .debug_macinfo
                0x0005b469     0x5512 C:\LPC1114_GIT\core\Lib\libcore.a(adc.o)
 .debug_macinfo
                0x0006097b     0x5483 C:\LPC1114_GIT\core\Lib\libcore.a(counter.o)
 .debug_macinfo
                0x00065dfe     0x57b1 C:\LPC1114_GIT\CMSIS_CORE_LPC11xx\Debug\libCMSIS_CORE_LPC11xx.a(system_LPC11xx.o)

.debug_str      0x00000000     0x1563
 .debug_str     0x00000000      0x242 ./src/cr_startup_lpc11xx.o
                                0x26a (size before relaxing)
 .debug_str     0x00000242       0x16 ./src/crp.o
                                 0x8a (size before relaxing)
 .debug_str     0x00000258      0x219 ./src/ext.o
                                0x316 (size before relaxing)
 .debug_str     0x00000471       0x81 ./src/irq_handlers.o
                                0x206 (size before relaxing)
 .debug_str     0x000004f2       0x68 ./src/main.o
                                0x165 (size before relaxing)
 .debug_str     0x0000055a       0x18 ./src/temp.o
                                0x150 (size before relaxing)
 .debug_str     0x00000572      0x2d3 C:\LPC1114_GIT\rfm73_client\Lib\librfm73_client.a(client_rfm.o)
                                0x5dd (size before relaxing)
 .debug_str     0x00000845      0x26a C:\LPC1114_GIT\rfm73_client\Lib\librfm73_client.a(rfm.o)
                                0x39f (size before relaxing)
 .debug_str     0x00000aaf       0x6b C:\LPC1114_GIT\rfm73_client\Lib\librfm73_client.a(compat.o)
                                0x160 (size before relaxing)
 .debug_str     0x00000b1a      0x361 C:\LPC1114_GIT\core\Lib\libcore.a(printf.o)
                                0x893 (size before relaxing)
 .debug_str     0x00000e7b       0x85 C:\LPC1114_GIT\core\Lib\libcore.a(small_printf_nofloat.o)
                                0x1af (size before relaxing)
 .debug_str     0x00000f00       0xb0 C:\LPC1114_GIT\core\Lib\libcore.a(small_printf_support.o)
                                0x1cc (size before relaxing)
 .debug_str     0x00000fb0       0x45 C:\LPC1114_GIT\core\Lib\libcore.a(adc_utils.o)
                                0x13d (size before relaxing)
 .debug_str     0x00000ff5       0xc4 C:\LPC1114_GIT\core\Lib\libcore.a(gpio.o)
                                0x433 (size before relaxing)
 .debug_str     0x000010b9       0x61 C:\LPC1114_GIT\core\Lib\libcore.a(leds.o)
                                0x35d (size before relaxing)
 .debug_str     0x0000111a      0x20c C:\LPC1114_GIT\core\Lib\libcore.a(pwr.o)
                                0x9c5 (size before relaxing)
 .debug_str     0x00001326       0x5f C:\LPC1114_GIT\core\Lib\libcore.a(spi.o)
                                0x5b3 (size before relaxing)
 .debug_str     0x00001385       0x5f C:\LPC1114_GIT\core\Lib\libcore.a(ssp1.o)
                                0x5b1 (size before relaxing)
 .debug_str     0x000013e4       0x78 C:\LPC1114_GIT\core\Lib\libcore.a(adc.o)
                                0x58c (size before relaxing)
 .debug_str     0x0000145c       0x9e C:\LPC1114_GIT\core\Lib\libcore.a(counter.o)
                                0x62e (size before relaxing)
 .debug_str     0x000014fa       0x69 C:\LPC1114_GIT\CMSIS_CORE_LPC11xx\Debug\libCMSIS_CORE_LPC11xx.a(system_LPC11xx.o)
                                0x3a1 (size before relaxing)

.comment        0x00000000       0x70
 .comment       0x00000000       0x70 ./src/cr_startup_lpc11xx.o
                                 0x71 (size before relaxing)
 .comment       0x00000000       0x71 ./src/crp.o
 .comment       0x00000000       0x71 ./src/ext.o
 .comment       0x00000000       0x71 ./src/irq_handlers.o
 .comment       0x00000000       0x71 ./src/main.o
 .comment       0x00000000       0x71 ./src/temp.o
 .comment       0x00000000       0x71 C:\LPC1114_GIT\rfm73_client\Lib\librfm73_client.a(client_rfm.o)
 .comment       0x00000000       0x71 C:\LPC1114_GIT\rfm73_client\Lib\librfm73_client.a(rfm.o)
 .comment       0x00000000       0x71 C:\LPC1114_GIT\rfm73_client\Lib\librfm73_client.a(compat.o)
 .comment       0x00000000       0x71 C:\LPC1114_GIT\core\Lib\libcore.a(printf.o)
 .comment       0x00000000       0x71 C:\LPC1114_GIT\core\Lib\libcore.a(small_printf_nofloat.o)
 .comment       0x00000000       0x71 C:\LPC1114_GIT\core\Lib\libcore.a(small_printf_support.o)
 .comment       0x00000000       0x71 C:\LPC1114_GIT\core\Lib\libcore.a(adc_utils.o)
 .comment       0x00000000       0x71 C:\LPC1114_GIT\core\Lib\libcore.a(gpio.o)
 .comment       0x00000000       0x71 C:\LPC1114_GIT\core\Lib\libcore.a(leds.o)
 .comment       0x00000000       0x71 C:\LPC1114_GIT\core\Lib\libcore.a(pwr.o)
 .comment       0x00000000       0x71 C:\LPC1114_GIT\core\Lib\libcore.a(spi.o)
 .comment       0x00000000       0x71 C:\LPC1114_GIT\core\Lib\libcore.a(ssp1.o)
 .comment       0x00000000       0x71 C:\LPC1114_GIT\core\Lib\libcore.a(adc.o)
 .comment       0x00000000       0x71 C:\LPC1114_GIT\core\Lib\libcore.a(counter.o)
 .comment       0x00000000       0x71 C:\LPC1114_GIT\CMSIS_CORE_LPC11xx\Debug\libCMSIS_CORE_LPC11xx.a(system_LPC11xx.o)
 .comment       0x00000000       0x71 c:/nxp/lpcxpresso_6.1.0_164/lpcxpresso/tools/bin/../lib/gcc/arm-none-eabi/4.6.2/../../../../arm-none-eabi/lib/armv6-m\libcr_c.a(memcpy.o)
 .comment       0x00000000       0x71 c:/nxp/lpcxpresso_6.1.0_164/lpcxpresso/tools/bin/../lib/gcc/arm-none-eabi/4.6.2/../../../../arm-none-eabi/lib/armv6-m\libcr_c.a(memmove.o)
 .comment       0x00000000       0x71 c:/nxp/lpcxpresso_6.1.0_164/lpcxpresso/tools/bin/../lib/gcc/arm-none-eabi/4.6.2/../../../../arm-none-eabi/lib/armv6-m\libcr_c.a(memset.o)
 .comment       0x00000000       0x71 c:/nxp/lpcxpresso_6.1.0_164/lpcxpresso/tools/bin/../lib/gcc/arm-none-eabi/4.6.2/../../../../arm-none-eabi/lib/armv6-m\libcr_c.a(__weak__main.o)

.ARM.attributes
                0x00000000       0x2f
 .ARM.attributes
                0x00000000       0x31 ./src/cr_startup_lpc11xx.o
 .ARM.attributes
                0x00000031       0x31 ./src/crp.o
 .ARM.attributes
                0x00000062       0x31 ./src/ext.o
 .ARM.attributes
                0x00000093       0x31 ./src/irq_handlers.o
 .ARM.attributes
                0x000000c4       0x31 ./src/main.o
 .ARM.attributes
                0x000000f5       0x31 ./src/temp.o
 .ARM.attributes
                0x00000126       0x31 C:\LPC1114_GIT\rfm73_client\Lib\librfm73_client.a(client_rfm.o)
 .ARM.attributes
                0x00000157       0x31 C:\LPC1114_GIT\rfm73_client\Lib\librfm73_client.a(rfm.o)
 .ARM.attributes
                0x00000188       0x31 C:\LPC1114_GIT\rfm73_client\Lib\librfm73_client.a(compat.o)
 .ARM.attributes
                0x000001b9       0x31 C:\LPC1114_GIT\core\Lib\libcore.a(printf.o)
 .ARM.attributes
                0x000001ea       0x31 C:\LPC1114_GIT\core\Lib\libcore.a(small_printf_nofloat.o)
 .ARM.attributes
                0x0000021b       0x31 C:\LPC1114_GIT\core\Lib\libcore.a(small_printf_support.o)
 .ARM.attributes
                0x0000024c       0x31 C:\LPC1114_GIT\core\Lib\libcore.a(adc_utils.o)
 .ARM.attributes
                0x0000027d       0x31 C:\LPC1114_GIT\core\Lib\libcore.a(gpio.o)
 .ARM.attributes
                0x000002ae       0x31 C:\LPC1114_GIT\core\Lib\libcore.a(leds.o)
 .ARM.attributes
                0x000002df       0x31 C:\LPC1114_GIT\core\Lib\libcore.a(pwr.o)
 .ARM.attributes
                0x00000310       0x31 C:\LPC1114_GIT\core\Lib\libcore.a(spi.o)
 .ARM.attributes
                0x00000341       0x31 C:\LPC1114_GIT\core\Lib\libcore.a(ssp1.o)
 .ARM.attributes
                0x00000372       0x31 C:\LPC1114_GIT\core\Lib\libcore.a(adc.o)
 .ARM.attributes
                0x000003a3       0x31 C:\LPC1114_GIT\core\Lib\libcore.a(counter.o)
 .ARM.attributes
                0x000003d4       0x31 C:\LPC1114_GIT\CMSIS_CORE_LPC11xx\Debug\libCMSIS_CORE_LPC11xx.a(system_LPC11xx.o)
 .ARM.attributes
                0x00000405       0x31 c:/nxp/lpcxpresso_6.1.0_164/lpcxpresso/tools/bin/../lib/gcc/arm-none-eabi/4.6.2/../../../../arm-none-eabi/lib/armv6-m\libcr_c.a(memcpy.o)
 .ARM.attributes
                0x00000436       0x31 c:/nxp/lpcxpresso_6.1.0_164/lpcxpresso/tools/bin/../lib/gcc/arm-none-eabi/4.6.2/../../../../arm-none-eabi/lib/armv6-m\libcr_c.a(memmove.o)
 .ARM.attributes
                0x00000467       0x31 c:/nxp/lpcxpresso_6.1.0_164/lpcxpresso/tools/bin/../lib/gcc/arm-none-eabi/4.6.2/../../../../arm-none-eabi/lib/armv6-m\libcr_c.a(memset.o)
 .ARM.attributes
                0x00000498       0x31 c:/nxp/lpcxpresso_6.1.0_164/lpcxpresso/tools/bin/../lib/gcc/arm-none-eabi/4.6.2/../../../../arm-none-eabi/lib/armv6-m\libcr_c.a(__weak__main.o)
 .ARM.attributes
                0x000004c9       0x21 c:/nxp/lpcxpresso_6.1.0_164/lpcxpresso/tools/bin/../lib/gcc/arm-none-eabi/4.6.2/armv6-m\libcr_eabihelpers.a(division.o)
 .ARM.attributes
                0x000004ea       0x21 c:/nxp/lpcxpresso_6.1.0_164/lpcxpresso/tools/bin/../lib/gcc/arm-none-eabi/4.6.2/armv6-m\libcr_eabihelpers.a(memcpy.o)

.debug_frame    0x00000000     0x1434
 .debug_frame   0x00000000      0x134 ./src/cr_startup_lpc11xx.o
 .debug_frame   0x00000134       0x48 ./src/ext.o
 .debug_frame   0x0000017c       0xb8 ./src/irq_handlers.o
 .debug_frame   0x00000234       0x6c ./src/main.o
 .debug_frame   0x000002a0       0x4c ./src/temp.o
 .debug_frame   0x000002ec       0xf0 C:\LPC1114_GIT\rfm73_client\Lib\librfm73_client.a(client_rfm.o)
 .debug_frame   0x000003dc      0x3d0 C:\LPC1114_GIT\rfm73_client\Lib\librfm73_client.a(rfm.o)
 .debug_frame   0x000007ac       0xf8 C:\LPC1114_GIT\rfm73_client\Lib\librfm73_client.a(compat.o)
 .debug_frame   0x000008a4      0x1e0 C:\LPC1114_GIT\core\Lib\libcore.a(printf.o)
 .debug_frame   0x00000a84       0x70 C:\LPC1114_GIT\core\Lib\libcore.a(small_printf_nofloat.o)
 .debug_frame   0x00000af4       0xa4 C:\LPC1114_GIT\core\Lib\libcore.a(small_printf_support.o)
 .debug_frame   0x00000b98       0x84 C:\LPC1114_GIT\core\Lib\libcore.a(adc_utils.o)
 .debug_frame   0x00000c1c      0x14c C:\LPC1114_GIT\core\Lib\libcore.a(gpio.o)
 .debug_frame   0x00000d68       0xb0 C:\LPC1114_GIT\core\Lib\libcore.a(leds.o)
 .debug_frame   0x00000e18      0x284 C:\LPC1114_GIT\core\Lib\libcore.a(pwr.o)
 .debug_frame   0x0000109c       0xc0 C:\LPC1114_GIT\core\Lib\libcore.a(spi.o)
 .debug_frame   0x0000115c       0xcc C:\LPC1114_GIT\core\Lib\libcore.a(ssp1.o)
 .debug_frame   0x00001228       0x6c C:\LPC1114_GIT\core\Lib\libcore.a(adc.o)
 .debug_frame   0x00001294      0x150 C:\LPC1114_GIT\core\Lib\libcore.a(counter.o)
 .debug_frame   0x000013e4       0x50 C:\LPC1114_GIT\CMSIS_CORE_LPC11xx\Debug\libCMSIS_CORE_LPC11xx.a(system_LPC11xx.o)
