Archive member included because of file (symbol)

C:\LPC1114_GIT\mqtt\Lib\libmqtt.a(mqtt_wrapper.o)
                              ./src/main.o (mw_init)
C:\LPC1114_GIT\mqtt\Lib\libmqtt.a(lan_utils.o)
                              C:\LPC1114_GIT\mqtt\Lib\libmqtt.a(mqtt_wrapper.o) (lu_ping)
C:\LPC1114_GIT\mqtt\Lib\libmqtt.a(libmqtt.o)
                              C:\LPC1114_GIT\mqtt\Lib\libmqtt.a(mqtt_wrapper.o) (mqtt_connect)
C:\LPC1114_GIT\enc28j60\Lib\libenc28j60.a(lan.o)
                              C:\LPC1114_GIT\mqtt\Lib\libmqtt.a(mqtt_wrapper.o) (net_buf)
C:\LPC1114_GIT\enc28j60\Lib\libenc28j60.a(enc28j60.o)
                              C:\LPC1114_GIT\enc28j60\Lib\libenc28j60.a(lan.o) (enc28j60_read_phy)
C:\LPC1114_GIT\enc28j60\Lib\libenc28j60.a(compat.o)
                              C:\LPC1114_GIT\enc28j60\Lib\libenc28j60.a(enc28j60.o) (spi_init)
C:\LPC1114_GIT\rfm73_server\Lib\librfm73_server.a(rfm.o)
                              ./src/main.o (rfm_get_status)
C:\LPC1114_GIT\rfm73_server\Lib\librfm73_server.a(server_rfm.o)
                              ./src/main.o (rfs_init)
C:\LPC1114_GIT\rfm73_server\Lib\librfm73_server.a(compat.o)
                              C:\LPC1114_GIT\rfm73_server\Lib\librfm73_server.a(rfm.o) (_wait)
C:\LPC1114_GIT\ap090\Lib\libap090.a(ap_090.o)
                              ./src/main.o (ap_set_brightness)
C:\LPC1114_GIT\core\Lib\libcore.a(printf.o)
                              ./src/main.o (uart_init)
C:\LPC1114_GIT\core\Lib\libcore.a(counter.o)
                              ./src/main.o (count_1khz)
C:\LPC1114_GIT\core\Lib\libcore.a(gpio.o)
                              C:\LPC1114_GIT\rfm73_server\Lib\librfm73_server.a(server_rfm.o) (GPIOSetInterrupt)
C:\LPC1114_GIT\core\Lib\libcore.a(leds.o)
                              ./src/main.o (led_poll)
C:\LPC1114_GIT\core\Lib\libcore.a(loopbuffer.o)
                              C:\LPC1114_GIT\mqtt\Lib\libmqtt.a(mqtt_wrapper.o) (lb_init)
C:\LPC1114_GIT\core\Lib\libcore.a(pwr.o)
                              ./src/main.o (pwr_init)
C:\LPC1114_GIT\core\Lib\libcore.a(spi.o)
                              C:\LPC1114_GIT\rfm73_server\Lib\librfm73_server.a(compat.o) (nrf_start)
C:\LPC1114_GIT\core\Lib\libcore.a(ssp1.o)
                              C:\LPC1114_GIT\enc28j60\Lib\libenc28j60.a(compat.o) (SSP1_IOConfig)
C:\LPC1114_GIT\CMSIS_CORE_LPC11xx\Debug\libCMSIS_CORE_LPC11xx.a(system_LPC11xx.o)
                              ./src/cr_startup_lpc11xx.o (SystemInit)
c:/nxp/lpcxpresso_6.1.0_164/lpcxpresso/tools/bin/../lib/gcc/arm-none-eabi/4.6.2/../../../../arm-none-eabi/lib/armv6-m\libcr_c.a(memcpy.o)
                              C:\LPC1114_GIT\mqtt\Lib\libmqtt.a(mqtt_wrapper.o) (memcpy)
c:/nxp/lpcxpresso_6.1.0_164/lpcxpresso/tools/bin/../lib/gcc/arm-none-eabi/4.6.2/../../../../arm-none-eabi/lib/armv6-m\libcr_c.a(memmove.o)
                              C:\LPC1114_GIT\core\Lib\libcore.a(printf.o) (memmove)
c:/nxp/lpcxpresso_6.1.0_164/lpcxpresso/tools/bin/../lib/gcc/arm-none-eabi/4.6.2/../../../../arm-none-eabi/lib/armv6-m\libcr_c.a(memset.o)
                              C:\LPC1114_GIT\mqtt\Lib\libmqtt.a(mqtt_wrapper.o) (memset)
c:/nxp/lpcxpresso_6.1.0_164/lpcxpresso/tools/bin/../lib/gcc/arm-none-eabi/4.6.2/../../../../arm-none-eabi/lib/armv6-m\libcr_c.a(__weak__main.o)
                              ./src/cr_startup_lpc11xx.o (__main)
c:/nxp/lpcxpresso_6.1.0_164/lpcxpresso/tools/bin/../lib/gcc/arm-none-eabi/4.6.2/../../../../arm-none-eabi/lib/armv6-m\libcr_c.a(memcmp.o)
                              C:\LPC1114_GIT\mqtt\Lib\libmqtt.a(mqtt_wrapper.o) (memcmp)
c:/nxp/lpcxpresso_6.1.0_164/lpcxpresso/tools/bin/../lib/gcc/arm-none-eabi/4.6.2/../../../../arm-none-eabi/lib/armv6-m\libcr_c.a(strchr.o)
                              C:\LPC1114_GIT\mqtt\Lib\libmqtt.a(mqtt_wrapper.o) (strchr)
c:/nxp/lpcxpresso_6.1.0_164/lpcxpresso/tools/bin/../lib/gcc/arm-none-eabi/4.6.2/../../../../arm-none-eabi/lib/armv6-m\libcr_c.a(strcpy.o)
                              ./src/main.o (strcpy)
c:/nxp/lpcxpresso_6.1.0_164/lpcxpresso/tools/bin/../lib/gcc/arm-none-eabi/4.6.2/../../../../arm-none-eabi/lib/armv6-m\libcr_c.a(strlen.o)
                              C:\LPC1114_GIT\mqtt\Lib\libmqtt.a(libmqtt.o) (strlen)
c:/nxp/lpcxpresso_6.1.0_164/lpcxpresso/tools/bin/../lib/gcc/arm-none-eabi/4.6.2/armv6-m\libcr_eabihelpers.a(division.o)
                              C:\LPC1114_GIT\core\Lib\libcore.a(loopbuffer.o) (__aeabi_idiv)
c:/nxp/lpcxpresso_6.1.0_164/lpcxpresso/tools/bin/../lib/gcc/arm-none-eabi/4.6.2/armv6-m\libcr_eabihelpers.a(memcpy.o)
                              c:/nxp/lpcxpresso_6.1.0_164/lpcxpresso/tools/bin/../lib/gcc/arm-none-eabi/4.6.2/../../../../arm-none-eabi/lib/armv6-m\libcr_c.a(memcpy.o) (__aeabi_memcpy)

Allocating common symbols
Common symbol       size              file

ip_mask             0x4               C:\LPC1114_GIT\enc28j60\Lib\libenc28j60.a(lan.o)
self                0x3               C:\LPC1114_GIT\rfm73_server\Lib\librfm73_server.a(server_rfm.o)
to_resolve          0x2               C:\LPC1114_GIT\rfm73_server\Lib\librfm73_server.a(server_rfm.o)
linkstate           0x1               C:\LPC1114_GIT\enc28j60\Lib\libenc28j60.a(lan.o)
_sub_subs           0x78              C:\LPC1114_GIT\mqtt\Lib\libmqtt.a(mqtt_wrapper.o)
dhcp_retry_time     0x4               C:\LPC1114_GIT\enc28j60\Lib\libenc28j60.a(lan.o)
dhcp_renew_time     0x4               C:\LPC1114_GIT\enc28j60\Lib\libenc28j60.a(lan.o)
prev_status         0x1               C:\LPC1114_GIT\rfm73_server\Lib\librfm73_server.a(rfm.o)
tx_callb            0x4               C:\LPC1114_GIT\rfm73_server\Lib\librfm73_server.a(rfm.o)
ip_addr             0x4               C:\LPC1114_GIT\enc28j60\Lib\libenc28j60.a(lan.o)
tcp_send_mode       0x1               C:\LPC1114_GIT\enc28j60\Lib\libenc28j60.a(lan.o)
tail                0x4               C:\LPC1114_GIT\core\Lib\libcore.a(loopbuffer.o)
net_buf             0x258             C:\LPC1114_GIT\enc28j60\Lib\libenc28j60.a(lan.o)
head                0x4               C:\LPC1114_GIT\core\Lib\libcore.a(loopbuffer.o)
ip_gateway          0x4               C:\LPC1114_GIT\enc28j60\Lib\libenc28j60.a(lan.o)
tx_done             0x1               C:\LPC1114_GIT\rfm73_server\Lib\librfm73_server.a(rfm.o)
buffer              0x190             C:\LPC1114_GIT\core\Lib\libcore.a(loopbuffer.o)
size                0x2               C:\LPC1114_GIT\core\Lib\libcore.a(loopbuffer.o)
tcp_pool            0x78              C:\LPC1114_GIT\enc28j60\Lib\libenc28j60.a(lan.o)
maxcount            0x4               C:\LPC1114_GIT\core\Lib\libcore.a(loopbuffer.o)
tcp_ack_sent        0x1               C:\LPC1114_GIT\enc28j60\Lib\libenc28j60.a(lan.o)
rx_callb            0x4               C:\LPC1114_GIT\rfm73_server\Lib\librfm73_server.a(rfm.o)
str                 0x4               C:\LPC1114_GIT\core\Lib\libcore.a(printf.o)
rx_packet           0x21              C:\LPC1114_GIT\rfm73_server\Lib\librfm73_server.a(rfm.o)
bind_table          0x30              C:\LPC1114_GIT\rfm73_server\Lib\librfm73_server.a(server_rfm.o)
len                 0x1               C:\LPC1114_GIT\rfm73_server\Lib\librfm73_server.a(server_rfm.o)

Discarded input sections

 .text          0x00000000        0x0 ./src/cr_startup_lpc11xx.o
 .data          0x00000000        0x0 ./src/cr_startup_lpc11xx.o
 .bss           0x00000000        0x0 ./src/cr_startup_lpc11xx.o
 .text          0x00000000        0x0 ./src/crp.o
 .data          0x00000000        0x0 ./src/crp.o
 .bss           0x00000000        0x0 ./src/crp.o
 .crp           0x00000000        0x4 ./src/crp.o
 .text          0x00000000        0x0 ./src/irq_handlers.o
 .data          0x00000000        0x0 ./src/irq_handlers.o
 .bss           0x00000000        0x0 ./src/irq_handlers.o
 .rodata.LPC_GPIO
                0x00000000       0x10 ./src/irq_handlers.o
 .text.IntDefaultHandler
                0x00000000       0x18 ./src/irq_handlers.o
 .text          0x00000000        0x0 ./src/main.o
 .data          0x00000000        0x0 ./src/main.o
 .bss           0x00000000        0x0 ./src/main.o
 .rodata.LPC_GPIO
Memory Configuration

Name             Origin             Length             Attributes
MFlash32         0x00000000         0x00008000         xr
RamLoc8          0x10000000         0x00002000         xrw
*default*        0x00000000         0xffffffff

Linker script and memory map

LOAD ./src/cr_startup_lpc11xx.o
LOAD ./src/crp.o
LOAD ./src/irq_handlers.o
LOAD ./src/main.o
LOAD C:\LPC1114_GIT\mqtt\Lib\libmqtt.a
LOAD C:\LPC1114_GIT\enc28j60\Lib\libenc28j60.a
LOAD C:\LPC1114_GIT\rfm73_server\Lib\librfm73_server.a
LOAD C:\LPC1114_GIT\ap090\Lib\libap090.a
LOAD C:\LPC1114_GIT\core\Lib\libcore.a
LOAD C:\LPC1114_GIT\CMSIS_CORE_LPC11xx\Debug\libCMSIS_CORE_LPC11xx.a
START GROUP
LOAD c:/nxp/lpcxpresso_6.1.0_164/lpcxpresso/tools/bin/../lib/gcc/arm-none-eabi/4.6.2/../../../../arm-none-eabi/lib/armv6-m\libcr_c.a
LOAD c:/nxp/lpcxpresso_6.1.0_164/lpcxpresso/tools/bin/../lib/gcc/arm-none-eabi/4.6.2/armv6-m\libcr_eabihelpers.a
END GROUP
                0x00008000                __top_MFlash32 = 0x8000
                0x10002000                __top_RamLoc8 = 0x10002000

.text           0x00000000     0x7a8c
 FILL mask 0xff
                0x00000000                __vectors_start__ = ABSOLUTE (.)
 *(.isr_vector)
 .isr_vector    0x00000000       0xc0 ./src/cr_startup_lpc11xx.o
                0x00000000                g_pfnVectors
                0x000000c0                . = ALIGN (0x4)
                0x000000c0                __section_table_start = .
                0x000000c0                __data_section_table = .
                0x000000c0        0x4 LONG 0x7a8c LOADADDR (.data)
                0x000000c4        0x4 LONG 0x10000000 ADDR (.data)
                0x000000c8        0x4 LONG 0x5c SIZEOF (.data)
                0x000000cc                __data_section_table_end = .
                0x000000cc                __bss_section_table = .
                0x000000cc        0x4 LONG 0x1000005c ADDR (.bss)
                0x000000d0        0x4 LONG 0x638 SIZEOF (.bss)
                0x000000d4                __bss_section_table_end = .
                0x000000d4                __section_table_end = .
 *(.after_vectors*)
 .after_vectors
                0x000000d4      0x19c ./src/cr_startup_lpc11xx.o
                0x000000d4                data_init
                0x00000118                bss_init
                0x0000014c                ResetISR
                0x000001d8                NMI_Handler
                0x000001e0                SVC_Handler
                0x000001e8                PendSV_Handler
                0x000001f0                SysTick_Handler
                0x000001f8                SSP0_IRQHandler
                0x000001f8                CAN_IRQHandler
                0x000001f8                TIMER32_1_IRQHandler
                0x000001f8                ADC_IRQHandler
                0x000001f8                PIOINT2_IRQHandler
                0x000001f8                BOD_IRQHandler
                0x000001f8                PIOINT0_IRQHandler
                0x000001f8                I2C_IRQHandler
                0x000001f8                TIMER16_1_IRQHandler
                0x000001f8                TIMER32_0_IRQHandler
 *(.text*)
 .text.NVIC_GetPendingIRQ
                0x00000270       0x3c ./src/cr_startup_lpc11xx.o
 .text.NVIC_ClearPendingIRQ
                0x000002ac       0x34 ./src/cr_startup_lpc11xx.o
 .text.NVIC_SystemReset
                0x000002e0       0x1c ./src/irq_handlers.o
 .text.HardFault_Handler
                0x000002fc       0x18 ./src/irq_handlers.o
                0x000002fc                HardFault_Handler
 .text.PIOINT1_IRQHandler
                0x00000314       0x64 ./src/irq_handlers.o
                0x00000314                PIOINT1_IRQHandler
 .text.PIOINT3_IRQHandler
                0x00000378       0x18 ./src/irq_handlers.o
                0x00000378                PIOINT3_IRQHandler
 .text.SSP1_IRQHandler
                0x00000390       0x20 ./src/irq_handlers.o
                0x00000390                SSP1_IRQHandler
 .text.udp_packet
                0x000003b0       0x14 ./src/main.o
                0x000003b0                udp_packet
 .text.sensor_subscribe
                0x000003c4       0xe8 ./src/main.o
                0x000003c4                sensor_subscribe
 .text.hub_subscribe
                0x000004ac       0x30 ./src/main.o
                0x000004ac                hub_subscribe
 .text.radio_recv
                0x000004dc      0x1f4 ./src/main.o
                0x000004dc                radio_recv
 .text.main     0x000006d0       0xcc ./src/main.o
                0x000006d0                main
 .text._lan_init
                0x0000079c        0xc C:\LPC1114_GIT\mqtt\Lib\libmqtt.a(mqtt_wrapper.o)
                0x0000079c                _lan_init
 .text._lan_ready
                0x000007a8       0x10 C:\LPC1114_GIT\mqtt\Lib\libmqtt.a(mqtt_wrapper.o)
                0x000007a8                _lan_ready
 .text._lan_reset
                0x000007b8        0xc C:\LPC1114_GIT\mqtt\Lib\libmqtt.a(mqtt_wrapper.o)
                0x000007b8                _lan_reset
 .text._tcp_init
                0x000007c4       0x34 C:\LPC1114_GIT\mqtt\Lib\libmqtt.a(mqtt_wrapper.o)
                0x000007c4                _tcp_init
 .text._tcp_ready
                0x000007f8       0x44 C:\LPC1114_GIT\mqtt\Lib\libmqtt.a(mqtt_wrapper.o)
                0x000007f8                _tcp_ready
 .text._tcp_connect
                0x0000083c      0x2e0 C:\LPC1114_GIT\mqtt\Lib\libmqtt.a(mqtt_wrapper.o)
                0x0000083c                _tcp_connect
 .text._tcp_send
                0x00000b1c       0x6c C:\LPC1114_GIT\mqtt\Lib\libmqtt.a(mqtt_wrapper.o)
                0x00000b1c                _tcp_send
 .text._tcp_reset
                0x00000b88       0x28 C:\LPC1114_GIT\mqtt\Lib\libmqtt.a(mqtt_wrapper.o)
                0x00000b88                _tcp_reset
 .text._auth_init
                0x00000bb0       0x14 C:\LPC1114_GIT\mqtt\Lib\libmqtt.a(mqtt_wrapper.o)
                0x00000bb0                _auth_init
 .text._auth_ready
                0x00000bc4       0x14 C:\LPC1114_GIT\mqtt\Lib\libmqtt.a(mqtt_wrapper.o)
                0x00000bc4                _auth_ready
 .text._auth_do
                0x00000bd8       0x94 C:\LPC1114_GIT\mqtt\Lib\libmqtt.a(mqtt_wrapper.o)
                0x00000bd8                _auth_do
 .text._auth_callback
                0x00000c6c       0x5c C:\LPC1114_GIT\mqtt\Lib\libmqtt.a(mqtt_wrapper.o)
                0x00000c6c                _auth_callback
 .text._auth_reset
                0x00000cc8       0x1c C:\LPC1114_GIT\mqtt\Lib\libmqtt.a(mqtt_wrapper.o)
                0x00000cc8                _auth_reset
 .text._sub_init
                0x00000ce4       0x1c C:\LPC1114_GIT\mqtt\Lib\libmqtt.a(mqtt_wrapper.o)
                0x00000ce4                _sub_init
 .text._sub_ready
                0x00000d00       0x24 C:\LPC1114_GIT\mqtt\Lib\libmqtt.a(mqtt_wrapper.o)
                0x00000d00                _sub_ready
 .text._sub_do  0x00000d24       0xe4 C:\LPC1114_GIT\mqtt\Lib\libmqtt.a(mqtt_wrapper.o)
                0x00000d24                _sub_do
 .text._sub_callback
                0x00000e08      0x28c C:\LPC1114_GIT\mqtt\Lib\libmqtt.a(mqtt_wrapper.o)
                0x00000e08                _sub_callback
 .text._sub_reset
                0x00001094       0x1c C:\LPC1114_GIT\mqtt\Lib\libmqtt.a(mqtt_wrapper.o)
                0x00001094                _sub_reset
 .text._all_ready
                0x000010b0       0x34 C:\LPC1114_GIT\mqtt\Lib\libmqtt.a(mqtt_wrapper.o)
                0x000010b0                _all_ready
 .text._pub_init
                0x000010e4       0x3c C:\LPC1114_GIT\mqtt\Lib\libmqtt.a(mqtt_wrapper.o)
                0x000010e4                _pub_init
 .text._pub_do  0x00001120       0xb0 C:\LPC1114_GIT\mqtt\Lib\libmqtt.a(mqtt_wrapper.o)
                0x00001120                _pub_do
 .text._pub_callback
                0x000011d0       0x7c C:\LPC1114_GIT\mqtt\Lib\libmqtt.a(mqtt_wrapper.o)
                0x000011d0                _pub_callback
 .text._ping_init
                0x0000124c       0x1c C:\LPC1114_GIT\mqtt\Lib\libmqtt.a(mqtt_wrapper.o)
                0x0000124c                _ping_init
 .text._ping_do
                0x00001268       0xb8 C:\LPC1114_GIT\mqtt\Lib\libmqtt.a(mqtt_wrapper.o)
                0x00001268                _ping_do
 .text._ping_callback
                0x00001320       0x40 C:\LPC1114_GIT\mqtt\Lib\libmqtt.a(mqtt_wrapper.o)
                0x00001320                _ping_callback
 .text._ping_reset
                0x00001360       0x1c C:\LPC1114_GIT\mqtt\Lib\libmqtt.a(mqtt_wrapper.o)
                0x00001360                _ping_reset
 .text.tcp_listen
                0x0000137c       0x18 C:\LPC1114_GIT\mqtt\Lib\libmqtt.a(mqtt_wrapper.o)
                0x0000137c                tcp_listen
 .text.tcp_read
                0x00001394       0x50 C:\LPC1114_GIT\mqtt\Lib\libmqtt.a(mqtt_wrapper.o)
                0x00001394                tcp_read
 .text.tcp_write
                0x000013e4       0x7c C:\LPC1114_GIT\mqtt\Lib\libmqtt.a(mqtt_wrapper.o)
                0x000013e4                tcp_write
 .text.tcp_closed
                0x00001460       0x30 C:\LPC1114_GIT\mqtt\Lib\libmqtt.a(mqtt_wrapper.o)
                0x00001460                tcp_closed
 .text.mw_init  0x00001490       0x2c C:\LPC1114_GIT\mqtt\Lib\libmqtt.a(mqtt_wrapper.o)
                0x00001490                mw_init
 .text.mw_status
                0x000014bc       0x7c C:\LPC1114_GIT\mqtt\Lib\libmqtt.a(mqtt_wrapper.o)
                0x000014bc                mw_status
 .text.mw_poll  0x00001538       0x98 C:\LPC1114_GIT\mqtt\Lib\libmqtt.a(mqtt_wrapper.o)
                0x00001538                mw_poll
 .text.mw_publish
                0x000015d0       0x60 C:\LPC1114_GIT\mqtt\Lib\libmqtt.a(mqtt_wrapper.o)
                0x000015d0                mw_publish
 .text.mw_subscribe
                0x00001630       0x58 C:\LPC1114_GIT\mqtt\Lib\libmqtt.a(mqtt_wrapper.o)
                0x00001630                mw_subscribe
 .text.lu_ping  0x00001688       0x4c C:\LPC1114_GIT\mqtt\Lib\libmqtt.a(lan_utils.o)
                0x00001688                lu_ping
 .text.icmp_packet
                0x000016d4       0x24 C:\LPC1114_GIT\mqtt\Lib\libmqtt.a(lan_utils.o)
                0x000016d4                icmp_packet
 .text.lu_dhcp_reset
                0x000016f8       0x4c C:\LPC1114_GIT\mqtt\Lib\libmqtt.a(lan_utils.o)
                0x000016f8                lu_dhcp_reset
 .text.mqtt_connect
                0x00001744       0xf8 C:\LPC1114_GIT\mqtt\Lib\libmqtt.a(libmqtt.o)
                0x00001744                mqtt_connect
 .text.mqtt_publish
                0x0000183c      0x110 C:\LPC1114_GIT\mqtt\Lib\libmqtt.a(libmqtt.o)
                0x0000183c                mqtt_publish
 .text.mqtt_subscribe
                0x0000194c      0x118 C:\LPC1114_GIT\mqtt\Lib\libmqtt.a(libmqtt.o)
                0x0000194c                mqtt_subscribe
 .text.dhcp_filter
                0x00001a64      0x4b4 C:\LPC1114_GIT\enc28j60\Lib\libenc28j60.a(lan.o)
                0x00001a64                dhcp_filter
 .text.dhcp_poll
                0x00001f18      0x47c C:\LPC1114_GIT\enc28j60\Lib\libenc28j60.a(lan.o)
                0x00001f18                dhcp_poll
 .text.tcp_xmit
                0x00002394      0x3c4 C:\LPC1114_GIT\enc28j60\Lib\libenc28j60.a(lan.o)
                0x00002394                tcp_xmit
 .text.tcp_open
                0x00002758       0xf8 C:\LPC1114_GIT\enc28j60\Lib\libenc28j60.a(lan.o)
                0x00002758                tcp_open
 .text.tcp_send
                0x00002850       0xd0 C:\LPC1114_GIT\enc28j60\Lib\libenc28j60.a(lan.o)
                0x00002850                tcp_send
 .text.tcp_get_status
                0x00002920       0x28 C:\LPC1114_GIT\enc28j60\Lib\libenc28j60.a(lan.o)
                0x00002920                tcp_get_status
 .text.tcp_reset
                0x00002948       0x44 C:\LPC1114_GIT\enc28j60\Lib\libenc28j60.a(lan.o)
                0x00002948                tcp_reset
 .text.tcp_filter
                0x0000298c      0x7e0 C:\LPC1114_GIT\enc28j60\Lib\libenc28j60.a(lan.o)
                0x0000298c                tcp_filter
 .text.tcp_poll
                0x0000316c       0x70 C:\LPC1114_GIT\enc28j60\Lib\libenc28j60.a(lan.o)
                0x0000316c                tcp_poll
 .text.udp_send
                0x000031dc      0x110 C:\LPC1114_GIT\enc28j60\Lib\libenc28j60.a(lan.o)
                0x000031dc                udp_send
 .text.udp_filter
                0x000032ec       0x8c C:\LPC1114_GIT\enc28j60\Lib\libenc28j60.a(lan.o)
                0x000032ec                udp_filter
 .text.icmp_filter
                0x00003378       0xd8 C:\LPC1114_GIT\enc28j60\Lib\libenc28j60.a(lan.o)
                0x00003378                icmp_filter
 .text.icmp_xmit
                0x00003450      0x108 C:\LPC1114_GIT\enc28j60\Lib\libenc28j60.a(lan.o)
                0x00003450                icmp_xmit
 .text.icmp_send
                0x00003558       0x64 C:\LPC1114_GIT\enc28j60\Lib\libenc28j60.a(lan.o)
                0x00003558                icmp_send
 .text.ip_cksum
                0x000035bc       0x90 C:\LPC1114_GIT\enc28j60\Lib\libenc28j60.a(lan.o)
                0x000035bc                ip_cksum
 .text.ip_send  0x0000364c      0x1f4 C:\LPC1114_GIT\enc28j60\Lib\libenc28j60.a(lan.o)
                0x0000364c                ip_send
 .text.ip_reply
                0x00003840      0x16c C:\LPC1114_GIT\enc28j60\Lib\libenc28j60.a(lan.o)
                0x00003840                ip_reply
 .text.ip_resend
                0x000039ac       0xa8 C:\LPC1114_GIT\enc28j60\Lib\libenc28j60.a(lan.o)
                0x000039ac                ip_resend
 .text.ip_filter
                0x00003a54      0x124 C:\LPC1114_GIT\enc28j60\Lib\libenc28j60.a(lan.o)
                0x00003a54                ip_filter
 .text.arp_search_cache
                0x00003b78       0x70 C:\LPC1114_GIT\enc28j60\Lib\libenc28j60.a(lan.o)
                0x00003b78                arp_search_cache
 .text.arp_resolve
                0x00003be8      0x158 C:\LPC1114_GIT\enc28j60\Lib\libenc28j60.a(lan.o)
                0x00003be8                arp_resolve
 .text.arp_filter
                0x00003d40      0x220 C:\LPC1114_GIT\enc28j60\Lib\libenc28j60.a(lan.o)
                0x00003d40                arp_filter
 .text.eth_resend
                0x00003f60       0x28 C:\LPC1114_GIT\enc28j60\Lib\libenc28j60.a(lan.o)
                0x00003f60                eth_resend
 .text.eth_send
                0x00003f88       0x3c C:\LPC1114_GIT\enc28j60\Lib\libenc28j60.a(lan.o)
                0x00003f88                eth_send
 .text.eth_reply
                0x00003fc4       0x50 C:\LPC1114_GIT\enc28j60\Lib\libenc28j60.a(lan.o)
                0x00003fc4                eth_reply
 .text.eth_filter
                0x00004014       0x5c C:\LPC1114_GIT\enc28j60\Lib\libenc28j60.a(lan.o)
                0x00004014                eth_filter
 .text.lan_init
                0x00004070       0x20 C:\LPC1114_GIT\enc28j60\Lib\libenc28j60.a(lan.o)
                0x00004070                lan_init
 .text.lan_poll
                0x00004090       0xf8 C:\LPC1114_GIT\enc28j60\Lib\libenc28j60.a(lan.o)
                0x00004090                lan_poll
 .text.lan_up   0x00004188       0x2c C:\LPC1114_GIT\enc28j60\Lib\libenc28j60.a(lan.o)
                0x00004188                lan_up
 .text.enc28j60_read_op
                0x000041b4       0x68 C:\LPC1114_GIT\enc28j60\Lib\libenc28j60.a(enc28j60.o)
                0x000041b4                enc28j60_read_op
 .text.enc28j60_write_op
                0x0000421c       0x4c C:\LPC1114_GIT\enc28j60\Lib\libenc28j60.a(enc28j60.o)
                0x0000421c                enc28j60_write_op
 .text.enc28j60_soft_reset
                0x00004268       0x44 C:\LPC1114_GIT\enc28j60\Lib\libenc28j60.a(enc28j60.o)
                0x00004268                enc28j60_soft_reset
 .text.enc28j60_set_bank
                0x000042ac       0x68 C:\LPC1114_GIT\enc28j60\Lib\libenc28j60.a(enc28j60.o)
                0x000042ac                enc28j60_set_bank
 .text.enc28j60_rcr
                0x00004314       0x2c C:\LPC1114_GIT\enc28j60\Lib\libenc28j60.a(enc28j60.o)
                0x00004314                enc28j60_rcr
 .text.enc28j60_rcr16
                0x00004340       0x4c C:\LPC1114_GIT\enc28j60\Lib\libenc28j60.a(enc28j60.o)
                0x00004340                enc28j60_rcr16
 .text.enc28j60_wcr
                0x0000438c       0x34 C:\LPC1114_GIT\enc28j60\Lib\libenc28j60.a(enc28j60.o)
                0x0000438c                enc28j60_wcr
 .text.enc28j60_wcr16
                0x000043c0       0x54 C:\LPC1114_GIT\enc28j60\Lib\libenc28j60.a(enc28j60.o)
                0x000043c0                enc28j60_wcr16
 .text.enc28j60_bfc
                0x00004414       0x34 C:\LPC1114_GIT\enc28j60\Lib\libenc28j60.a(enc28j60.o)
                0x00004414                enc28j60_bfc
 .text.enc28j60_bfs
                0x00004448       0x34 C:\LPC1114_GIT\enc28j60\Lib\libenc28j60.a(enc28j60.o)
                0x00004448                enc28j60_bfs
 .text.enc28j60_read_buffer
                0x0000447c       0x54 C:\LPC1114_GIT\enc28j60\Lib\libenc28j60.a(enc28j60.o)
                0x0000447c                enc28j60_read_buffer
 .text.enc28j60_write_buffer
                0x000044d0       0x50 C:\LPC1114_GIT\enc28j60\Lib\libenc28j60.a(enc28j60.o)
                0x000044d0                enc28j60_write_buffer
 .text.enc28j60_read_phy
                0x00004520       0x50 C:\LPC1114_GIT\enc28j60\Lib\libenc28j60.a(enc28j60.o)
                0x00004520                enc28j60_read_phy
 .text.enc28j60_write_phy
                0x00004570       0x48 C:\LPC1114_GIT\enc28j60\Lib\libenc28j60.a(enc28j60.o)
                0x00004570                enc28j60_write_phy
 .text.enc28j60_init
                0x000045b8       0xfc C:\LPC1114_GIT\enc28j60\Lib\libenc28j60.a(enc28j60.o)
                0x000045b8                enc28j60_init
 .text.enc28j60_send_packet
                0x000046b4       0x98 C:\LPC1114_GIT\enc28j60\Lib\libenc28j60.a(enc28j60.o)
                0x000046b4                enc28j60_send_packet
 .text.enc28j60_recv_packet
                0x0000474c       0xcc C:\LPC1114_GIT\enc28j60\Lib\libenc28j60.a(enc28j60.o)
                0x0000474c                enc28j60_recv_packet
 .text.spi_init
                0x00004818       0x10 C:\LPC1114_GIT\enc28j60\Lib\libenc28j60.a(compat.o)
                0x00004818                spi_init
 .text.spi_cs   0x00004828       0x1c C:\LPC1114_GIT\enc28j60\Lib\libenc28j60.a(compat.o)
                0x00004828                spi_cs
 .text.spi_txrx
                0x00004844       0x20 C:\LPC1114_GIT\enc28j60\Lib\libenc28j60.a(compat.o)
                0x00004844                spi_txrx
 .text.rfm_readn
                0x00004864       0x5c C:\LPC1114_GIT\rfm73_server\Lib\librfm73_server.a(rfm.o)
                0x00004864                rfm_readn
 .text.rfm_read
                0x000048c0       0x48 C:\LPC1114_GIT\rfm73_server\Lib\librfm73_server.a(rfm.o)
                0x000048c0                rfm_read
 .text.rfm_writen
                0x00004908       0x64 C:\LPC1114_GIT\rfm73_server\Lib\librfm73_server.a(rfm.o)
                0x00004908                rfm_writen
 .text.rfm_write
                0x0000496c       0x44 C:\LPC1114_GIT\rfm73_server\Lib\librfm73_server.a(rfm.o)
                0x0000496c                rfm_write
 .text.rfm_switch_banks
                0x000049b0       0x48 C:\LPC1114_GIT\rfm73_server\Lib\librfm73_server.a(rfm.o)
 .text.rfm_write_payload
                0x000049f8       0x9c C:\LPC1114_GIT\rfm73_server\Lib\librfm73_server.a(rfm.o)
                0x000049f8                rfm_write_payload
 .text.rfm_read_payload
                0x00004a94       0x9c C:\LPC1114_GIT\rfm73_server\Lib\librfm73_server.a(rfm.o)
                0x00004a94                rfm_read_payload
 .text.rfm_flush_tx
                0x00004b30       0x18 C:\LPC1114_GIT\rfm73_server\Lib\librfm73_server.a(rfm.o)
                0x00004b30                rfm_flush_tx
 .text.rfm_flush_rx
                0x00004b48       0x18 C:\LPC1114_GIT\rfm73_server\Lib\librfm73_server.a(rfm.o)
                0x00004b48                rfm_flush_rx
 .text.rfm_set_channel
                0x00004b60       0x20 C:\LPC1114_GIT\rfm73_server\Lib\librfm73_server.a(rfm.o)
                0x00004b60                rfm_set_channel
 .text.rfm_get_status
                0x00004b80       0x24 C:\LPC1114_GIT\rfm73_server\Lib\librfm73_server.a(rfm.o)
                0x00004b80                rfm_get_status
 .text.rfm_int  0x00004ba4      0x10c C:\LPC1114_GIT\rfm73_server\Lib\librfm73_server.a(rfm.o)
                0x00004ba4                rfm_int
 .text.rfm_init
                0x00004cb0      0x130 C:\LPC1114_GIT\rfm73_server\Lib\librfm73_server.a(rfm.o)
                0x00004cb0                rfm_init
 .text.rfm_listen
                0x00004de0       0x68 C:\LPC1114_GIT\rfm73_server\Lib\librfm73_server.a(rfm.o)
                0x00004de0                rfm_listen
 .text.rfm_powerup
                0x00004e48       0x50 C:\LPC1114_GIT\rfm73_server\Lib\librfm73_server.a(rfm.o)
                0x00004e48                rfm_powerup
 .text.rfm_set_rx_pipes
                0x00004e98       0x84 C:\LPC1114_GIT\rfm73_server\Lib\librfm73_server.a(rfm.o)
                0x00004e98                rfm_set_rx_pipes
 .text.rfm_set_pipe_addr
                0x00004f1c       0x60 C:\LPC1114_GIT\rfm73_server\Lib\librfm73_server.a(rfm.o)
                0x00004f1c                rfm_set_pipe_addr
 .text.rfm_set_tx_addr
                0x00004f7c       0x28 C:\LPC1114_GIT\rfm73_server\Lib\librfm73_server.a(rfm.o)
                0x00004f7c                rfm_set_tx_addr
 .text.rfm_fast_send
                0x00004fa4       0x80 C:\LPC1114_GIT\rfm73_server\Lib\librfm73_server.a(rfm.o)
                0x00004fa4                rfm_fast_send
 .text.rfm_set_rx_callback
                0x00005024       0x18 C:\LPC1114_GIT\rfm73_server\Lib\librfm73_server.a(rfm.o)
                0x00005024                rfm_set_rx_callback
 .text.NVIC_EnableIRQ
                0x0000503c       0x2c C:\LPC1114_GIT\rfm73_server\Lib\librfm73_server.a(server_rfm.o)
 .text.is_in_table
                0x00005068       0x54 C:\LPC1114_GIT\rfm73_server\Lib\librfm73_server.a(server_rfm.o)
 .text.add_seq  0x000050bc       0x6c C:\LPC1114_GIT\rfm73_server\Lib\librfm73_server.a(server_rfm.o)
 .text.get_seq  0x00005128       0x60 C:\LPC1114_GIT\rfm73_server\Lib\librfm73_server.a(server_rfm.o)
 .text.recv_callback
                0x00005188      0x1c0 C:\LPC1114_GIT\rfm73_server\Lib\librfm73_server.a(server_rfm.o)
                0x00005188                recv_callback
 .text.rfs_init
                0x00005348      0x118 C:\LPC1114_GIT\rfm73_server\Lib\librfm73_server.a(server_rfm.o)
                0x00005348                rfs_init
 .text.rfs_ask_ack
                0x00005460       0x1c C:\LPC1114_GIT\rfm73_server\Lib\librfm73_server.a(server_rfm.o)
                0x00005460                rfs_ask_ack
 .text.rfs_need_resolve
                0x0000547c       0x24 C:\LPC1114_GIT\rfm73_server\Lib\librfm73_server.a(server_rfm.o)
                0x0000547c                rfs_need_resolve
 .text.rfs_recv
                0x000054a0       0x9c C:\LPC1114_GIT\rfm73_server\Lib\librfm73_server.a(server_rfm.o)
                0x000054a0                rfs_recv
 .text._wait    0x0000553c       0x14 C:\LPC1114_GIT\rfm73_server\Lib\librfm73_server.a(compat.o)
                0x0000553c                _wait
 .text._spi_tx  0x00005550       0x1c C:\LPC1114_GIT\rfm73_server\Lib\librfm73_server.a(compat.o)
                0x00005550                _spi_tx
 .text._spi_rx  0x0000556c       0x14 C:\LPC1114_GIT\rfm73_server\Lib\librfm73_server.a(compat.o)
                0x0000556c                _spi_rx
 .text._radio_enable
                0x00005580        0xc C:\LPC1114_GIT\rfm73_server\Lib\librfm73_server.a(compat.o)
                0x00005580                _radio_enable
 .text._radio_disable
                0x0000558c        0xc C:\LPC1114_GIT\rfm73_server\Lib\librfm73_server.a(compat.o)
                0x0000558c                _radio_disable
 .text._rfm_select
                0x00005598        0xc C:\LPC1114_GIT\rfm73_server\Lib\librfm73_server.a(compat.o)
                0x00005598                _rfm_select
 .text._rfm_release
                0x000055a4        0xc C:\LPC1114_GIT\rfm73_server\Lib\librfm73_server.a(compat.o)
                0x000055a4                _rfm_release
 .text._compat_init
                0x000055b0        0xc C:\LPC1114_GIT\rfm73_server\Lib\librfm73_server.a(compat.o)
                0x000055b0                _compat_init
 .text.r_write  0x000055bc       0x44 C:\LPC1114_GIT\ap090\Lib\libap090.a(ap_090.o)
                0x000055bc                r_write
 .text.ap_set_brightness
                0x00005600       0x6c C:\LPC1114_GIT\ap090\Lib\libap090.a(ap_090.o)
                0x00005600                ap_set_brightness
 .text.NVIC_EnableIRQ
                0x0000566c       0x2c C:\LPC1114_GIT\core\Lib\libcore.a(printf.o)
 .text.NVIC_DisableIRQ
                0x00005698       0x30 C:\LPC1114_GIT\core\Lib\libcore.a(printf.o)
 .text.uart_init
                0x000056c8       0xc0 C:\LPC1114_GIT\core\Lib\libcore.a(printf.o)
                0x000056c8                uart_init
 .text.uart_48mhz
                0x00005788       0x4c C:\LPC1114_GIT\core\Lib\libcore.a(printf.o)
                0x00005788                uart_48mhz
 .text.uart_12mhz
                0x000057d4       0x4c C:\LPC1114_GIT\core\Lib\libcore.a(printf.o)
                0x000057d4                uart_12mhz
 .text.uart_8khz
                0x00005820       0x20 C:\LPC1114_GIT\core\Lib\libcore.a(printf.o)
                0x00005820                uart_8khz
 .text.uart_putchar
                0x00005840       0x30 C:\LPC1114_GIT\core\Lib\libcore.a(printf.o)
                0x00005840                uart_putchar
 .text.printf   0x00005870       0x20 C:\LPC1114_GIT\core\Lib\libcore.a(printf.o)
                0x00005870                printf
 .text.atoi     0x00005890       0x80 C:\LPC1114_GIT\core\Lib\libcore.a(printf.o)
                0x00005890                atoi
 .text.UART_IRQHandler
                0x00005910      0x10c C:\LPC1114_GIT\core\Lib\libcore.a(printf.o)
                0x00005910                UART_IRQHandler
 .text.NVIC_EnableIRQ
                0x00005a1c       0x2c C:\LPC1114_GIT\core\Lib\libcore.a(counter.o)
 .text.NVIC_ClearPendingIRQ
                0x00005a48       0x34 C:\LPC1114_GIT\core\Lib\libcore.a(counter.o)
 .text.TIMER16_0_IRQHandler
                0x00005a7c       0x40 C:\LPC1114_GIT\core\Lib\libcore.a(counter.o)
                0x00005a7c                TIMER16_0_IRQHandler
 .text._counter_init
                0x00005abc       0x4c C:\LPC1114_GIT\core\Lib\libcore.a(counter.o)
 .text.counter_init_12mhz
                0x00005b08       0x1c C:\LPC1114_GIT\core\Lib\libcore.a(counter.o)
                0x00005b08                counter_init_12mhz
 .text.counter_init_48mhz
                0x00005b24       0x1c C:\LPC1114_GIT\core\Lib\libcore.a(counter.o)
                0x00005b24                counter_init_48mhz
 .text.count_1khz
                0x00005b40       0x14 C:\LPC1114_GIT\core\Lib\libcore.a(counter.o)
                0x00005b40                count_1khz
 .text.count_32khz
                0x00005b54       0x14 C:\LPC1114_GIT\core\Lib\libcore.a(counter.o)
                0x00005b54                count_32khz
 .text.count_1hz
                0x00005b68       0x14 C:\LPC1114_GIT\core\Lib\libcore.a(counter.o)
                0x00005b68                count_1hz
 .text.GPIOInit
                0x00005b7c       0x1c C:\LPC1114_GIT\core\Lib\libcore.a(gpio.o)
                0x00005b7c                GPIOInit
 .text.GPIOSetInterrupt
                0x00005b98      0x334 C:\LPC1114_GIT\core\Lib\libcore.a(gpio.o)
                0x00005b98                GPIOSetInterrupt
 .text.GPIOIntEnable
                0x00005ecc       0xa8 C:\LPC1114_GIT\core\Lib\libcore.a(gpio.o)
                0x00005ecc                GPIOIntEnable
 .text.GPIOIntDisable
                0x00005f74       0xa8 C:\LPC1114_GIT\core\Lib\libcore.a(gpio.o)
                0x00005f74                GPIOIntDisable
 .text.GPIOIntStatus
                0x0000601c       0xb4 C:\LPC1114_GIT\core\Lib\libcore.a(gpio.o)
                0x0000601c                GPIOIntStatus
 .text.GPIOSetValue
                0x000060d0       0x38 C:\LPC1114_GIT\core\Lib\libcore.a(gpio.o)
                0x000060d0                GPIOSetValue
 .text.GPIOToggle
                0x00006108       0x40 C:\LPC1114_GIT\core\Lib\libcore.a(gpio.o)
                0x00006108                GPIOToggle
 .text.GPIOSetDir
                0x00006148       0x74 C:\LPC1114_GIT\core\Lib\libcore.a(gpio.o)
                0x00006148                GPIOSetDir
 .text.led_poll
                0x000061bc       0x80 C:\LPC1114_GIT\core\Lib\libcore.a(leds.o)
                0x000061bc                led_poll
 .text.led_init
                0x0000623c       0xc8 C:\LPC1114_GIT\core\Lib\libcore.a(leds.o)
                0x0000623c                led_init
 .text.led_on   0x00006304       0x38 C:\LPC1114_GIT\core\Lib\libcore.a(leds.o)
                0x00006304                led_on
 .text.led_off  0x0000633c       0x38 C:\LPC1114_GIT\core\Lib\libcore.a(leds.o)
                0x0000633c                led_off
 .text.led_blink
                0x00006374       0x48 C:\LPC1114_GIT\core\Lib\libcore.a(leds.o)
                0x00006374                led_blink
 .text.buf      0x000063bc       0x5c C:\LPC1114_GIT\core\Lib\libcore.a(loopbuffer.o)
                0x000063bc                buf
 .text.lb_init  0x00006418       0x8c C:\LPC1114_GIT\core\Lib\libcore.a(loopbuffer.o)
                0x00006418                lb_init
 .text.lb_alloc
                0x000064a4       0x9c C:\LPC1114_GIT\core\Lib\libcore.a(loopbuffer.o)
                0x000064a4                lb_alloc
 .text.lb_is_free
                0x00006540       0x44 C:\LPC1114_GIT\core\Lib\libcore.a(loopbuffer.o)
                0x00006540                lb_is_free
 .text.lb_is_full
                0x00006584       0x60 C:\LPC1114_GIT\core\Lib\libcore.a(loopbuffer.o)
                0x00006584                lb_is_full
 .text.lb_put   0x000065e4       0xc0 C:\LPC1114_GIT\core\Lib\libcore.a(loopbuffer.o)
                0x000065e4                lb_put
 .text.lb_get   0x000066a4       0xbc C:\LPC1114_GIT\core\Lib\libcore.a(loopbuffer.o)
                0x000066a4                lb_get
 .text.lb_clean
                0x00006760       0x6c C:\LPC1114_GIT\core\Lib\libcore.a(loopbuffer.o)
                0x00006760                lb_clean
 .text.NVIC_DisableIRQ
                0x000067cc       0x30 C:\LPC1114_GIT\core\Lib\libcore.a(pwr.o)
 .text.NVIC_ClearPendingIRQ
                0x000067fc       0x34 C:\LPC1114_GIT\core\Lib\libcore.a(pwr.o)
 .text.pwr_init
                0x00006830       0x2c C:\LPC1114_GIT\core\Lib\libcore.a(pwr.o)
                0x00006830                pwr_init
 .text.asm_wait
                0x0000685c       0x5c C:\LPC1114_GIT\core\Lib\libcore.a(pwr.o)
                0x0000685c                asm_wait
 .text.pwr_clkout
                0x000068b8       0x94 C:\LPC1114_GIT\core\Lib\libcore.a(pwr.o)
                0x000068b8                pwr_clkout
 .text.pwr_switch_to_48MHz
                0x0000694c       0x9c C:\LPC1114_GIT\core\Lib\libcore.a(pwr.o)
                0x0000694c                pwr_switch_to_48MHz
 .text.pwr_switch_to_12MHz
                0x000069e8       0x58 C:\LPC1114_GIT\core\Lib\libcore.a(pwr.o)
                0x000069e8                pwr_switch_to_12MHz
 .text.pwr_wdt_init
                0x00006a40       0x8c C:\LPC1114_GIT\core\Lib\libcore.a(pwr.o)
                0x00006a40                pwr_wdt_init
 .text.WAKEUP_IRQHandler
                0x00006acc       0x68 C:\LPC1114_GIT\core\Lib\libcore.a(pwr.o)
                0x00006acc                WAKEUP_IRQHandler
 .text.WDT_IRQHandler
                0x00006b34       0x48 C:\LPC1114_GIT\core\Lib\libcore.a(pwr.o)
                0x00006b34                WDT_IRQHandler
 .text.nrf_start
                0x00006b7c       0x14 C:\LPC1114_GIT\core\Lib\libcore.a(spi.o)
                0x00006b7c                nrf_start
 .text.nrf_stop
                0x00006b90       0x14 C:\LPC1114_GIT\core\Lib\libcore.a(spi.o)
                0x00006b90                nrf_stop
 .text.nrfspi_init
                0x00006ba4      0x148 C:\LPC1114_GIT\core\Lib\libcore.a(spi.o)
                0x00006ba4                nrfspi_init
 .text.nrfspi_txrx
                0x00006cec       0x44 C:\LPC1114_GIT\core\Lib\libcore.a(spi.o)
                0x00006cec                nrfspi_txrx
 .text.nrfspi_select
                0x00006d30       0x10 C:\LPC1114_GIT\core\Lib\libcore.a(spi.o)
                0x00006d30                nrfspi_select
 .text.nrfspi_release
                0x00006d40       0x10 C:\LPC1114_GIT\core\Lib\libcore.a(spi.o)
                0x00006d40                nrfspi_release
 .text.SSP1_IOConfig
                0x00006d50       0xb0 C:\LPC1114_GIT\core\Lib\libcore.a(ssp1.o)
                0x00006d50                SSP1_IOConfig
 .text.SSP1_Init
                0x00006e00       0x58 C:\LPC1114_GIT\core\Lib\libcore.a(ssp1.o)
                0x00006e00                SSP1_Init
 .text.SSP1_txrx
                0x00006e58       0x40 C:\LPC1114_GIT\core\Lib\libcore.a(ssp1.o)
                0x00006e58                SSP1_txrx
 .text.SSP1_cs  0x00006e98       0x28 C:\LPC1114_GIT\core\Lib\libcore.a(ssp1.o)
                0x00006e98                SSP1_cs
 .text.SystemInit
                0x00006ec0       0xe4 C:\LPC1114_GIT\CMSIS_CORE_LPC11xx\Debug\libCMSIS_CORE_LPC11xx.a(system_LPC11xx.o)
                0x00006ec0                SystemInit
 .text.memcpy   0x00006fa4        0x8 c:/nxp/lpcxpresso_6.1.0_164/lpcxpresso/tools/bin/../lib/gcc/arm-none-eabi/4.6.2/../../../../arm-none-eabi/lib/armv6-m\libcr_c.a(memcpy.o)
                0x00006fa4                memcpy
 .text.memset   0x00006fac        0x8 c:/nxp/lpcxpresso_6.1.0_164/lpcxpresso/tools/bin/../lib/gcc/arm-none-eabi/4.6.2/../../../../arm-none-eabi/lib/armv6-m\libcr_c.a(memset.o)
                0x00006fac                memset
 .text.__weak_main
                0x00006fb4        0x8 c:/nxp/lpcxpresso_6.1.0_164/lpcxpresso/tools/bin/../lib/gcc/arm-none-eabi/4.6.2/../../../../arm-none-eabi/lib/armv6-m\libcr_c.a(__weak__main.o)
                0x00006fb4                __weak_main
                0x00006fb4                __main
 .text.memcmp   0x00006fbc       0x38 c:/nxp/lpcxpresso_6.1.0_164/lpcxpresso/tools/bin/../lib/gcc/arm-none-eabi/4.6.2/../../../../arm-none-eabi/lib/armv6-m\libcr_c.a(memcmp.o)
                0x00006fbc                memcmp
 .text.strchr   0x00006ff4       0x16 c:/nxp/lpcxpresso_6.1.0_164/lpcxpresso/tools/bin/../lib/gcc/arm-none-eabi/4.6.2/../../../../arm-none-eabi/lib/armv6-m\libcr_c.a(strchr.o)
                0x00006ff4                strchr
 *fill*         0x0000700a        0x2 00
 .text.strcpy   0x0000700c       0x48 c:/nxp/lpcxpresso_6.1.0_164/lpcxpresso/tools/bin/../lib/gcc/arm-none-eabi/4.6.2/../../../../arm-none-eabi/lib/armv6-m\libcr_c.a(strcpy.o)
                0x0000700c                strcpy
 .text.strlen   0x00007054       0x58 c:/nxp/lpcxpresso_6.1.0_164/lpcxpresso/tools/bin/../lib/gcc/arm-none-eabi/4.6.2/../../../../arm-none-eabi/lib/armv6-m\libcr_c.a(strlen.o)
                0x00007054                strlen
 .text.__aeabi_division_idivmod
                0x000070ac        0x6 c:/nxp/lpcxpresso_6.1.0_164/lpcxpresso/tools/bin/../lib/gcc/arm-none-eabi/4.6.2/armv6-m\libcr_eabihelpers.a(division.o)
                0x000070ac                __aeabi_idivmod
                0x000070ac                __aeabi_idiv
 .text.__aeabi_division_uidivmod
                0x000070b2       0x72 c:/nxp/lpcxpresso_6.1.0_164/lpcxpresso/tools/bin/../lib/gcc/arm-none-eabi/4.6.2/armv6-m\libcr_eabihelpers.a(division.o)
                0x000070b2                __aeabi_uidivmod
                0x000070b2                __aeabi_uidiv
 .text.__aeabi_division_idiv0
                0x00007124        0x2 c:/nxp/lpcxpresso_6.1.0_164/lpcxpresso/tools/bin/../lib/gcc/arm-none-eabi/4.6.2/armv6-m\libcr_eabihelpers.a(division.o)
                0x00007124                __aeabi_idiv0
 .text.__aeabi_memcpy
                0x00007126       0x2c c:/nxp/lpcxpresso_6.1.0_164/lpcxpresso/tools/bin/../lib/gcc/arm-none-eabi/4.6.2/armv6-m\libcr_eabihelpers.a(memcpy.o)
                0x00007126                __aeabi_memcpy4
                0x00007126                __aeabi_memcpy8
                0x00007126                __aeabi_memcpy
 .text.__aeabi_memset_lowlevel
                0x00007152       0x2a c:/nxp/lpcxpresso_6.1.0_164/lpcxpresso/tools/bin/../lib/gcc/arm-none-eabi/4.6.2/armv6-m\libcr_eabihelpers.a(memcpy.o)
                0x00007152                __aeabi_lowlevel_memset
 *(.rodata .rodata.*)
 .rodata        0x0000717c       0x3c ./src/cr_startup_lpc11xx.o
 .rodata        0x000071b8       0xd0 ./src/irq_handlers.o
 .rodata        0x00007288      0x160 ./src/main.o
 .rodata        0x000073e8      0x2e8 C:\LPC1114_GIT\mqtt\Lib\libmqtt.a(mqtt_wrapper.o)
 .rodata        0x000076d0       0x20 C:\LPC1114_GIT\mqtt\Lib\libmqtt.a(lan_utils.o)
 .rodata        0x000076f0      0x1f8 C:\LPC1114_GIT\enc28j60\Lib\libenc28j60.a(lan.o)
 .rodata.dhcp_filter
                0x000078e8       0xec C:\LPC1114_GIT\enc28j60\Lib\libenc28j60.a(lan.o)
 .rodata        0x000079d4        0x4 C:\LPC1114_GIT\enc28j60\Lib\libenc28j60.a(enc28j60.o)
 .rodata        0x000079d8       0x74 C:\LPC1114_GIT\rfm73_server\Lib\librfm73_server.a(server_rfm.o)
 .rodata        0x00007a4c       0x30 C:\LPC1114_GIT\ap090\Lib\libap090.a(ap_090.o)
 .rodata.LPC_GPIO
                0x00007a7c       0x10 C:\LPC1114_GIT\core\Lib\libcore.a(gpio.o)
                0x00007a8c                . = ALIGN (0x4)

.glue_7         0x00007a8c        0x0
 .glue_7        0x00000000        0x0 linker stubs

.glue_7t        0x00007a8c        0x0
 .glue_7t       0x00000000        0x0 linker stubs

.vfp11_veneer   0x00007a8c        0x0
 .vfp11_veneer  0x00000000        0x0 linker stubs

.v4_bx          0x00007a8c        0x0
 .v4_bx         0x00000000        0x0 linker stubs

.ARM.extab
 *(.ARM.extab* .gnu.linkonce.armextab.*)
                0x00007a8c                __exidx_start = .

.ARM.exidx
 *(.ARM.exidx* .gnu.linkonce.armexidx.*)
                0x00007a8c                __exidx_end = .
                0x00007a8c                _etext = .

.uninit_RESERVED
                0x10000000        0x0
 *(.bss.$RESERVED*)
                0x10000000                . = ALIGN (0x4)
                0x10000000                _end_uninit_RESERVED = .

.data           0x10000000       0x5c load address 0x00007a8c
 FILL mask 0xff
                0x10000000                _data = .
 *(vtable)
 *(.data*)
 .data._tcp_socket
                0x10000000        0x1 C:\LPC1114_GIT\mqtt\Lib\libmqtt.a(mqtt_wrapper.o)
                0x10000000                _tcp_socket
 .data._pub_lb  0x10000001        0x1 C:\LPC1114_GIT\mqtt\Lib\libmqtt.a(mqtt_wrapper.o)
                0x10000001                _pub_lb
 .data._ping_success
                0x10000002        0x1 C:\LPC1114_GIT\mqtt\Lib\libmqtt.a(mqtt_wrapper.o)
                0x10000002                _ping_success
 .data.sub_sent.4593
                0x10000003        0x1 C:\LPC1114_GIT\mqtt\Lib\libmqtt.a(mqtt_wrapper.o)
 .data.gateway_ping.4554
                0x10000004        0x1 C:\LPC1114_GIT\mqtt\Lib\libmqtt.a(mqtt_wrapper.o)
 .data.server_ping.4555
                0x10000005        0x1 C:\LPC1114_GIT\mqtt\Lib\libmqtt.a(mqtt_wrapper.o)
 .data.ping_state
                0x10000006        0x1 C:\LPC1114_GIT\mqtt\Lib\libmqtt.a(lan_utils.o)
                0x10000006                ping_state
 *fill*         0x10000007        0x1 00
 .data.mac_addr
                0x10000008        0x8 C:\LPC1114_GIT\enc28j60\Lib\libenc28j60.a(lan.o)
 .data.cksum.4172
                0x10000010        0x2 C:\LPC1114_GIT\enc28j60\Lib\libenc28j60.a(lan.o)
 *fill*         0x10000012        0x2 00
 .data.Reg00    0x10000014        0x4 C:\LPC1114_GIT\rfm73_server\Lib\librfm73_server.a(rfm.o)
                0x10000014                Reg00
 .data.Reg01    0x10000018        0x4 C:\LPC1114_GIT\rfm73_server\Lib\librfm73_server.a(rfm.o)
                0x10000018                Reg01
 .data.Reg02    0x1000001c        0x4 C:\LPC1114_GIT\rfm73_server\Lib\librfm73_server.a(rfm.o)
                0x1000001c                Reg02
 .data.Reg03    0x10000020        0x4 C:\LPC1114_GIT\rfm73_server\Lib\librfm73_server.a(rfm.o)
                0x10000020                Reg03
 .data.Reg04    0x10000024        0x4 C:\LPC1114_GIT\rfm73_server\Lib\librfm73_server.a(rfm.o)
                0x10000024                Reg04
 .data.Reg05    0x10000028        0x4 C:\LPC1114_GIT\rfm73_server\Lib\librfm73_server.a(rfm.o)
                0x10000028                Reg05
 .data.Reg0C    0x1000002c        0x4 C:\LPC1114_GIT\rfm73_server\Lib\librfm73_server.a(rfm.o)
                0x1000002c                Reg0C
 .data.Reg0D    0x10000030        0x4 C:\LPC1114_GIT\rfm73_server\Lib\librfm73_server.a(rfm.o)
                0x10000030                Reg0D
 .data.Reg0E    0x10000034        0xc C:\LPC1114_GIT\rfm73_server\Lib\librfm73_server.a(rfm.o)
                0x10000034                Reg0E
 .data.pipe_addresses
                0x10000040        0x8 C:\LPC1114_GIT\rfm73_server\Lib\librfm73_server.a(rfm.o)
                0x10000040                pipe_addresses
 .data.pipe_payloads
                0x10000048        0x8 C:\LPC1114_GIT\rfm73_server\Lib\librfm73_server.a(rfm.o)
                0x10000048                pipe_payloads
 .data.led_ports
                0x10000050        0x4 C:\LPC1114_GIT\core\Lib\libcore.a(leds.o)
                0x10000050                led_ports
 .data.led_pins
                0x10000054        0x4 C:\LPC1114_GIT\core\Lib\libcore.a(leds.o)
                0x10000054                led_pins
 .data.ms_cycles
                0x10000058        0x4 C:\LPC1114_GIT\core\Lib\libcore.a(pwr.o)
                0x10000058                ms_cycles
                0x1000005c                . = ALIGN (0x4)
                0x1000005c                _edata = .

.bss            0x1000005c      0x638 load address 0x00007ae8
                0x1000005c                _bss = .
 *(.bss*)
 .bss._tcp_frame
                0x1000005c        0x4 C:\LPC1114_GIT\mqtt\Lib\libmqtt.a(mqtt_wrapper.o)
                0x1000005c                _tcp_frame
 .bss._tcp_recv_time
                0x10000060        0x4 C:\LPC1114_GIT\mqtt\Lib\libmqtt.a(mqtt_wrapper.o)
                0x10000060                _tcp_recv_time
 .bss._tcp_send_time
                0x10000064        0x4 C:\LPC1114_GIT\mqtt\Lib\libmqtt.a(mqtt_wrapper.o)
                0x10000064                _tcp_send_time
 .bss._auth_done
                0x10000068        0x1 C:\LPC1114_GIT\mqtt\Lib\libmqtt.a(mqtt_wrapper.o)
                0x10000068                _auth_done
 *fill*         0x10000069        0x3 00
 .bss._auth_time
                0x1000006c        0x4 C:\LPC1114_GIT\mqtt\Lib\libmqtt.a(mqtt_wrapper.o)
                0x1000006c                _auth_time
 .bss._sub_state
                0x10000070        0x1 C:\LPC1114_GIT\mqtt\Lib\libmqtt.a(mqtt_wrapper.o)
                0x10000070                _sub_state
 *fill*         0x10000071        0x3 00
 .bss._sub_time
                0x10000074        0x4 C:\LPC1114_GIT\mqtt\Lib\libmqtt.a(mqtt_wrapper.o)
                0x10000074                _sub_time
 .bss._sub_subs_num
                0x10000078        0x1 C:\LPC1114_GIT\mqtt\Lib\libmqtt.a(mqtt_wrapper.o)
                0x10000078                _sub_subs_num
 .bss._pub_send_in_progress
                0x10000079        0x1 C:\LPC1114_GIT\mqtt\Lib\libmqtt.a(mqtt_wrapper.o)
                0x10000079                _pub_send_in_progress
 *fill*         0x1000007a        0x2 00
 .bss._pub_send_time
                0x1000007c        0x4 C:\LPC1114_GIT\mqtt\Lib\libmqtt.a(mqtt_wrapper.o)
                0x1000007c                _pub_send_time
 .bss._pub_packet
                0x10000080       0x38 C:\LPC1114_GIT\mqtt\Lib\libmqtt.a(mqtt_wrapper.o)
                0x10000080                _pub_packet
 .bss._ping_time
                0x100000b8        0x4 C:\LPC1114_GIT\mqtt\Lib\libmqtt.a(mqtt_wrapper.o)
                0x100000b8                _ping_time
 .bss.led_update.4674
                0x100000bc        0x4 C:\LPC1114_GIT\mqtt\Lib\libmqtt.a(mqtt_wrapper.o)
 .bss.gateway_ping_time.4552
                0x100000c0        0x4 C:\LPC1114_GIT\mqtt\Lib\libmqtt.a(mqtt_wrapper.o)
 .bss.server_ping_time.4553
                0x100000c4        0x4 C:\LPC1114_GIT\mqtt\Lib\libmqtt.a(mqtt_wrapper.o)
 .bss.arp_cache_wr
                0x100000c8        0x1 C:\LPC1114_GIT\enc28j60\Lib\libenc28j60.a(lan.o)
 *fill*         0x100000c9        0x3 00
 .bss.arp_cache
                0x100000cc       0x20 C:\LPC1114_GIT\enc28j60\Lib\libenc28j60.a(lan.o)
 .bss.dhcp_status
                0x100000ec        0x1 C:\LPC1114_GIT\enc28j60\Lib\libenc28j60.a(lan.o)
                0x100000ec                dhcp_status
 *fill*         0x100000ed        0x3 00
 .bss.dhcp_server
                0x100000f0        0x4 C:\LPC1114_GIT\enc28j60\Lib\libenc28j60.a(lan.o)
 .bss.dhcp_transaction_id
                0x100000f4        0x4 C:\LPC1114_GIT\enc28j60\Lib\libenc28j60.a(lan.o)
 .bss.pre_link.4264
                0x100000f8        0x1 C:\LPC1114_GIT\enc28j60\Lib\libenc28j60.a(lan.o)
 *fill*         0x100000f9        0x1 00
 .bss.sequence.4171
                0x100000fa        0x2 C:\LPC1114_GIT\enc28j60\Lib\libenc28j60.a(lan.o)
 .bss.enc28j60_current_bank
                0x100000fc        0x1 C:\LPC1114_GIT\enc28j60\Lib\libenc28j60.a(enc28j60.o)
                0x100000fc                enc28j60_current_bank
 *fill*         0x100000fd        0x1 00
 .bss.enc28j60_rxrdpt
                0x100000fe        0x2 C:\LPC1114_GIT\enc28j60\Lib\libenc28j60.a(enc28j60.o)
                0x100000fe                enc28j60_rxrdpt
 .bss.ready_bytes
                0x10000100        0x1 C:\LPC1114_GIT\core\Lib\libcore.a(printf.o)
                0x10000100                ready_bytes
 .bss.rx_ready  0x10000101        0x1 C:\LPC1114_GIT\core\Lib\libcore.a(printf.o)
                0x10000101                rx_ready
 .bss.disabled  0x10000102        0x1 C:\LPC1114_GIT\core\Lib\libcore.a(printf.o)
                0x10000102                disabled
 *fill*         0x10000103        0x1 00
 .bss._seconds  0x10000104        0x4 C:\LPC1114_GIT\core\Lib\libcore.a(counter.o)
                0x10000104                _seconds
 .bss._mseconds
                0x10000108        0x4 C:\LPC1114_GIT\core\Lib\libcore.a(counter.o)
                0x10000108                _mseconds
 .bss.led_blinks
                0x1000010c        0x8 C:\LPC1114_GIT\core\Lib\libcore.a(leds.o)
                0x1000010c                led_blinks
 .bss.inited    0x10000114        0x1 C:\LPC1114_GIT\core\Lib\libcore.a(loopbuffer.o)
                0x10000114                inited
 *fill*         0x10000115        0x3 00
 .bss.wdt_flag  0x10000118        0x4 C:\LPC1114_GIT\core\Lib\libcore.a(pwr.o)
                0x10000118                wdt_flag
 *(COMMON)
 COMMON         0x1000011c       0x78 C:\LPC1114_GIT\mqtt\Lib\libmqtt.a(mqtt_wrapper.o)
                0x1000011c                _sub_subs
 COMMON         0x10000194      0x2ed C:\LPC1114_GIT\enc28j60\Lib\libenc28j60.a(lan.o)
                0x10000194                ip_mask
                0x10000198                linkstate
                0x1000019c                dhcp_retry_time
                0x100001a0                dhcp_renew_time
                0x100001a4                ip_addr
                0x100001a8                tcp_send_mode
                0x100001ac                net_buf
                0x10000404                ip_gateway
                0x10000408                tcp_pool
                0x10000480                tcp_ack_sent
 *fill*         0x10000481        0x3 00
 COMMON         0x10000484       0x31 C:\LPC1114_GIT\rfm73_server\Lib\librfm73_server.a(rfm.o)
                0x10000484                prev_status
                0x10000488                tx_callb
                0x1000048c                tx_done
                0x10000490                rx_callb
                0x10000494                rx_packet
 *fill*         0x100004b5        0x3 00
 COMMON         0x100004b8       0x39 C:\LPC1114_GIT\rfm73_server\Lib\librfm73_server.a(server_rfm.o)
                0x100004b8                self
                0x100004bc                to_resolve
                0x100004c0                bind_table
                0x100004f0                len
 *fill*         0x100004f1        0x3 00
 COMMON         0x100004f4      0x1a0 C:\LPC1114_GIT\core\Lib\libcore.a(loopbuffer.o)
                0x100004f4                tail
                0x100004f8                head
                0x100004fc                buffer
                0x1000068c                size
                0x10000690                maxcount
                0x10000694                . = ALIGN (0x4)
                0x10000694                _ebss = .
                0x10000694                PROVIDE (end, .)

.noinit         0x10000694        0x0 load address 0x00007ae8
                0x10000694                _noinit = .
 *(.noinit*)
                0x10000694                . = ALIGN (0x4)
                0x10000694                _end_noinit = .
                0x10000694                PROVIDE (_pvHeapStart, .)
                0x10002000                PROVIDE (_vStackTop, (__top_RamLoc8 - 0x0))
OUTPUT(hub_ap090.axf elf32-littlearm)

.debug_info     0x00000000     0xa569
 .debug_info    0x00000000      0x548 ./src/cr_startup_lpc11xx.o
 .debug_info    0x00000548       0x48 ./src/crp.o
 .debug_info    0x00000590      0x42e ./src/irq_handlers.o
 .debug_info    0x000009be      0x47d ./src/main.o
 .debug_info    0x00000e3b      0xccf C:\LPC1114_GIT\mqtt\Lib\libmqtt.a(mqtt_wrapper.o)
 .debug_info    0x00001b0a      0x242 C:\LPC1114_GIT\mqtt\Lib\libmqtt.a(lan_utils.o)
 .debug_info    0x00001d4c      0x1ff C:\LPC1114_GIT\mqtt\Lib\libmqtt.a(libmqtt.o)
 .debug_info    0x00001f4b     0x12fd C:\LPC1114_GIT\enc28j60\Lib\libenc28j60.a(lan.o)
 .debug_info    0x00003248      0x484 C:\LPC1114_GIT\enc28j60\Lib\libenc28j60.a(enc28j60.o)
 .debug_info    0x000036cc      0x130 C:\LPC1114_GIT\enc28j60\Lib\libenc28j60.a(compat.o)
 .debug_info    0x000037fc      0x91d C:\LPC1114_GIT\rfm73_server\Lib\librfm73_server.a(rfm.o)
 .debug_info    0x00004119      0xb22 C:\LPC1114_GIT\rfm73_server\Lib\librfm73_server.a(server_rfm.o)
 .debug_info    0x00004c3b      0x151 C:\LPC1114_GIT\rfm73_server\Lib\librfm73_server.a(compat.o)
 .debug_info    0x00004d8c      0x31d C:\LPC1114_GIT\ap090\Lib\libap090.a(ap_090.o)
 .debug_info    0x000050a9      0xf20 C:\LPC1114_GIT\core\Lib\libcore.a(printf.o)
 .debug_info    0x00005fc9      0x8e4 C:\LPC1114_GIT\core\Lib\libcore.a(counter.o)
 .debug_info    0x000068ad      0x814 C:\LPC1114_GIT\core\Lib\libcore.a(gpio.o)
 .debug_info    0x000070c1      0x695 C:\LPC1114_GIT\core\Lib\libcore.a(leds.o)
 .debug_info    0x00007756      0x349 C:\LPC1114_GIT\core\Lib\libcore.a(loopbuffer.o)
 .debug_info    0x00007a9f     0x1162 C:\LPC1114_GIT\core\Lib\libcore.a(pwr.o)
 .debug_info    0x00008c01      0xa0b C:\LPC1114_GIT\core\Lib\libcore.a(spi.o)
 .debug_info    0x0000960c      0xa7b C:\LPC1114_GIT\core\Lib\libcore.a(ssp1.o)
 .debug_info    0x0000a087      0x4e2 C:\LPC1114_GIT\CMSIS_CORE_LPC11xx\Debug\libCMSIS_CORE_LPC11xx.a(system_LPC11xx.o)

.debug_abbrev   0x00000000     0x2166
 .debug_abbrev  0x00000000      0x1da ./src/cr_startup_lpc11xx.o
 .debug_abbrev  0x000001da       0x39 ./src/crp.o
 .debug_abbrev  0x00000213      0x171 ./src/irq_handlers.o
 .debug_abbrev  0x00000384      0x1c8 ./src/main.o
 .debug_abbrev  0x0000054c      0x27e C:\LPC1114_GIT\mqtt\Lib\libmqtt.a(mqtt_wrapper.o)
 .debug_abbrev  0x000007ca      0x136 C:\LPC1114_GIT\mqtt\Lib\libmqtt.a(lan_utils.o)
 .debug_abbrev  0x00000900       0xb3 C:\LPC1114_GIT\mqtt\Lib\libmqtt.a(libmqtt.o)
 .debug_abbrev  0x000009b3      0x254 C:\LPC1114_GIT\enc28j60\Lib\libenc28j60.a(lan.o)
 .debug_abbrev  0x00000c07       0xd2 C:\LPC1114_GIT\enc28j60\Lib\libenc28j60.a(enc28j60.o)
 .debug_abbrev  0x00000cd9       0xb3 C:\LPC1114_GIT\enc28j60\Lib\libenc28j60.a(compat.o)
 .debug_abbrev  0x00000d8c      0x1d7 C:\LPC1114_GIT\rfm73_server\Lib\librfm73_server.a(rfm.o)
 .debug_abbrev  0x00000f63      0x228 C:\LPC1114_GIT\rfm73_server\Lib\librfm73_server.a(server_rfm.o)
 .debug_abbrev  0x0000118b       0x8d C:\LPC1114_GIT\rfm73_server\Lib\librfm73_server.a(compat.o)
 .debug_abbrev  0x00001218      0x12f C:\LPC1114_GIT\ap090\Lib\libap090.a(ap_090.o)
 .debug_abbrev  0x00001347      0x25c C:\LPC1114_GIT\core\Lib\libcore.a(printf.o)
 .debug_abbrev  0x000015a3      0x157 C:\LPC1114_GIT\core\Lib\libcore.a(counter.o)
 .debug_abbrev  0x000016fa      0x19c C:\LPC1114_GIT\core\Lib\libcore.a(gpio.o)
 .debug_abbrev  0x00001896      0x170 C:\LPC1114_GIT\core\Lib\libcore.a(leds.o)
 .debug_abbrev  0x00001a06       0xf5 C:\LPC1114_GIT\core\Lib\libcore.a(loopbuffer.o)
 .debug_abbrev  0x00001afb      0x263 C:\LPC1114_GIT\core\Lib\libcore.a(pwr.o)
 .debug_abbrev  0x00001d5e      0x16e C:\LPC1114_GIT\core\Lib\libcore.a(spi.o)
 .debug_abbrev  0x00001ecc      0x1ae C:\LPC1114_GIT\core\Lib\libcore.a(ssp1.o)
 .debug_abbrev  0x0000207a       0xec C:\LPC1114_GIT\CMSIS_CORE_LPC11xx\Debug\libCMSIS_CORE_LPC11xx.a(system_LPC11xx.o)

.debug_loc      0x00000000     0x3542
 .debug_loc     0x00000000      0x200 ./src/cr_startup_lpc11xx.o
 .debug_loc     0x00000200      0x114 ./src/irq_handlers.o
 .debug_loc     0x00000314      0x11a ./src/main.o
 .debug_loc     0x0000042e      0x704 C:\LPC1114_GIT\mqtt\Lib\libmqtt.a(mqtt_wrapper.o)
 .debug_loc     0x00000b32       0x9c C:\LPC1114_GIT\mqtt\Lib\libmqtt.a(lan_utils.o)
 .debug_loc     0x00000bce       0xc4 C:\LPC1114_GIT\mqtt\Lib\libmqtt.a(libmqtt.o)
 .debug_loc     0x00000c92      0x67a C:\LPC1114_GIT\enc28j60\Lib\libenc28j60.a(lan.o)
 .debug_loc     0x0000130c      0x3b8 C:\LPC1114_GIT\enc28j60\Lib\libenc28j60.a(enc28j60.o)
 .debug_loc     0x000016c4       0xd4 C:\LPC1114_GIT\enc28j60\Lib\libenc28j60.a(compat.o)
 .debug_loc     0x00001798      0x668 C:\LPC1114_GIT\rfm73_server\Lib\librfm73_server.a(rfm.o)
 .debug_loc     0x00001e00      0x294 C:\LPC1114_GIT\rfm73_server\Lib\librfm73_server.a(server_rfm.o)
 .debug_loc     0x00002094      0x178 C:\LPC1114_GIT\rfm73_server\Lib\librfm73_server.a(compat.o)
 .debug_loc     0x0000220c      0x1ee C:\LPC1114_GIT\ap090\Lib\libap090.a(ap_090.o)
 .debug_loc     0x000023fa      0x324 C:\LPC1114_GIT\core\Lib\libcore.a(printf.o)
 .debug_loc     0x0000271e      0x208 C:\LPC1114_GIT\core\Lib\libcore.a(counter.o)
 .debug_loc     0x00002926      0x224 C:\LPC1114_GIT\core\Lib\libcore.a(gpio.o)
 .debug_loc     0x00002b4a      0x118 C:\LPC1114_GIT\core\Lib\libcore.a(leds.o)
 .debug_loc     0x00002c62      0x1f8 C:\LPC1114_GIT\core\Lib\libcore.a(loopbuffer.o)
 .debug_loc     0x00002e5a      0x414 C:\LPC1114_GIT\core\Lib\libcore.a(pwr.o)
 .debug_loc     0x0000326e      0x120 C:\LPC1114_GIT\core\Lib\libcore.a(spi.o)
 .debug_loc     0x0000338e      0x144 C:\LPC1114_GIT\core\Lib\libcore.a(ssp1.o)
 .debug_loc     0x000034d2       0x70 C:\LPC1114_GIT\CMSIS_CORE_LPC11xx\Debug\libCMSIS_CORE_LPC11xx.a(system_LPC11xx.o)

.debug_aranges  0x00000000      0xa28
 .debug_aranges
                0x00000000       0x68 ./src/cr_startup_lpc11xx.o
 .debug_aranges
                0x00000068       0x48 ./src/irq_handlers.o
 .debug_aranges
                0x000000b0       0x40 ./src/main.o
 .debug_aranges
                0x000000f0      0x138 C:\LPC1114_GIT\mqtt\Lib\libmqtt.a(mqtt_wrapper.o)
 .debug_aranges
                0x00000228       0x30 C:\LPC1114_GIT\mqtt\Lib\libmqtt.a(lan_utils.o)
 .debug_aranges
                0x00000258       0x30 C:\LPC1114_GIT\mqtt\Lib\libmqtt.a(libmqtt.o)
 .debug_aranges
                0x00000288      0x108 C:\LPC1114_GIT\enc28j60\Lib\libenc28j60.a(lan.o)
 .debug_aranges
                0x00000390       0xa0 C:\LPC1114_GIT\enc28j60\Lib\libenc28j60.a(enc28j60.o)
 .debug_aranges
                0x00000430       0x38 C:\LPC1114_GIT\enc28j60\Lib\libenc28j60.a(compat.o)
 .debug_aranges
                0x00000468      0x110 C:\LPC1114_GIT\rfm73_server\Lib\librfm73_server.a(rfm.o)
 .debug_aranges
                0x00000578       0x78 C:\LPC1114_GIT\rfm73_server\Lib\librfm73_server.a(server_rfm.o)
 .debug_aranges
                0x000005f0       0x58 C:\LPC1114_GIT\rfm73_server\Lib\librfm73_server.a(compat.o)
 .debug_aranges
                0x00000648       0x60 C:\LPC1114_GIT\ap090\Lib\libap090.a(ap_090.o)
 .debug_aranges
                0x000006a8       0x90 C:\LPC1114_GIT\core\Lib\libcore.a(printf.o)
 .debug_aranges
                0x00000738       0x70 C:\LPC1114_GIT\core\Lib\libcore.a(counter.o)
 .debug_aranges
                0x000007a8       0x68 C:\LPC1114_GIT\core\Lib\libcore.a(gpio.o)
 .debug_aranges
                0x00000810       0x40 C:\LPC1114_GIT\core\Lib\libcore.a(leds.o)
 .debug_aranges
                0x00000850       0x60 C:\LPC1114_GIT\core\Lib\libcore.a(loopbuffer.o)
 .debug_aranges
                0x000008b0       0xc0 C:\LPC1114_GIT\core\Lib\libcore.a(pwr.o)
 .debug_aranges
                0x00000970       0x48 C:\LPC1114_GIT\core\Lib\libcore.a(spi.o)
 .debug_aranges
                0x000009b8       0x48 C:\LPC1114_GIT\core\Lib\libcore.a(ssp1.o)
 .debug_aranges
                0x00000a00       0x28 C:\LPC1114_GIT\CMSIS_CORE_LPC11xx\Debug\libCMSIS_CORE_LPC11xx.a(system_LPC11xx.o)

.debug_ranges   0x00000000      0x8c8
 .debug_ranges  0x00000000       0x58 ./src/cr_startup_lpc11xx.o
 .debug_ranges  0x00000058       0x38 ./src/irq_handlers.o
 .debug_ranges  0x00000090       0x30 ./src/main.o
 .debug_ranges  0x000000c0      0x128 C:\LPC1114_GIT\mqtt\Lib\libmqtt.a(mqtt_wrapper.o)
 .debug_ranges  0x000001e8       0x20 C:\LPC1114_GIT\mqtt\Lib\libmqtt.a(lan_utils.o)
 .debug_ranges  0x00000208       0x20 C:\LPC1114_GIT\mqtt\Lib\libmqtt.a(libmqtt.o)
 .debug_ranges  0x00000228       0xf8 C:\LPC1114_GIT\enc28j60\Lib\libenc28j60.a(lan.o)
 .debug_ranges  0x00000320       0x90 C:\LPC1114_GIT\enc28j60\Lib\libenc28j60.a(enc28j60.o)
 .debug_ranges  0x000003b0       0x28 C:\LPC1114_GIT\enc28j60\Lib\libenc28j60.a(compat.o)
 .debug_ranges  0x000003d8      0x100 C:\LPC1114_GIT\rfm73_server\Lib\librfm73_server.a(rfm.o)
 .debug_ranges  0x000004d8       0x68 C:\LPC1114_GIT\rfm73_server\Lib\librfm73_server.a(server_rfm.o)
 .debug_ranges  0x00000540       0x48 C:\LPC1114_GIT\rfm73_server\Lib\librfm73_server.a(compat.o)
 .debug_ranges  0x00000588       0x50 C:\LPC1114_GIT\ap090\Lib\libap090.a(ap_090.o)
 .debug_ranges  0x000005d8       0x80 C:\LPC1114_GIT\core\Lib\libcore.a(printf.o)
 .debug_ranges  0x00000658       0x60 C:\LPC1114_GIT\core\Lib\libcore.a(counter.o)
 .debug_ranges  0x000006b8       0x58 C:\LPC1114_GIT\core\Lib\libcore.a(gpio.o)
 .debug_ranges  0x00000710       0x30 C:\LPC1114_GIT\core\Lib\libcore.a(leds.o)
 .debug_ranges  0x00000740       0x50 C:\LPC1114_GIT\core\Lib\libcore.a(loopbuffer.o)
 .debug_ranges  0x00000790       0xb0 C:\LPC1114_GIT\core\Lib\libcore.a(pwr.o)
 .debug_ranges  0x00000840       0x38 C:\LPC1114_GIT\core\Lib\libcore.a(spi.o)
 .debug_ranges  0x00000878       0x38 C:\LPC1114_GIT\core\Lib\libcore.a(ssp1.o)
 .debug_ranges  0x000008b0       0x18 C:\LPC1114_GIT\CMSIS_CORE_LPC11xx\Debug\libCMSIS_CORE_LPC11xx.a(system_LPC11xx.o)

.debug_line     0x00000000     0x7334
 .debug_line    0x00000000      0x48c ./src/cr_startup_lpc11xx.o
 .debug_line    0x0000048c       0xac ./src/crp.o
 .debug_line    0x00000538      0x49f ./src/irq_handlers.o
 .debug_line    0x000009d7      0x57e ./src/main.o
 .debug_line    0x00000f55      0x8ed C:\LPC1114_GIT\mqtt\Lib\libmqtt.a(mqtt_wrapper.o)
 .debug_line    0x00001842      0x3ea C:\LPC1114_GIT\mqtt\Lib\libmqtt.a(lan_utils.o)
 .debug_line    0x00001c2c      0x39e C:\LPC1114_GIT\mqtt\Lib\libmqtt.a(libmqtt.o)
 .debug_line    0x00001fca      0x975 C:\LPC1114_GIT\enc28j60\Lib\libenc28j60.a(lan.o)
 .debug_line    0x0000293f      0x502 C:\LPC1114_GIT\enc28j60\Lib\libenc28j60.a(enc28j60.o)
 .debug_line    0x00002e41      0x40e C:\LPC1114_GIT\enc28j60\Lib\libenc28j60.a(compat.o)
 .debug_line    0x0000324f      0x75f C:\LPC1114_GIT\rfm73_server\Lib\librfm73_server.a(rfm.o)
 .debug_line    0x000039ae      0x5e7 C:\LPC1114_GIT\rfm73_server\Lib\librfm73_server.a(server_rfm.o)
 .debug_line    0x00003f95      0x477 C:\LPC1114_GIT\rfm73_server\Lib\librfm73_server.a(compat.o)
 .debug_line    0x0000440c      0x4c6 C:\LPC1114_GIT\ap090\Lib\libap090.a(ap_090.o)
 .debug_line    0x000048d2      0x57f C:\LPC1114_GIT\core\Lib\libcore.a(printf.o)
 .debug_line    0x00004e51      0x471 C:\LPC1114_GIT\core\Lib\libcore.a(counter.o)
 .debug_line    0x000052c2      0x4a3 C:\LPC1114_GIT\core\Lib\libcore.a(gpio.o)
 .debug_line    0x00005765      0x433 C:\LPC1114_GIT\core\Lib\libcore.a(leds.o)
 .debug_line    0x00005b98      0x470 C:\LPC1114_GIT\core\Lib\libcore.a(loopbuffer.o)
 .debug_line    0x00006008      0x6a2 C:\LPC1114_GIT\core\Lib\libcore.a(pwr.o)
 .debug_line    0x000066aa      0x421 C:\LPC1114_GIT\core\Lib\libcore.a(spi.o)
 .debug_line    0x00006acb      0x45e C:\LPC1114_GIT\core\Lib\libcore.a(ssp1.o)
 .debug_line    0x00006f29      0x40b C:\LPC1114_GIT\CMSIS_CORE_LPC11xx\Debug\libCMSIS_CORE_LPC11xx.a(system_LPC11xx.o)

.debug_macinfo  0x00000000    0x762e5
 .debug_macinfo
                0x00000000     0x5567 ./src/cr_startup_lpc11xx.o
 .debug_macinfo
                0x00005567     0x2339 ./src/crp.o
 .debug_macinfo
                0x000078a0     0x556a ./src/irq_handlers.o
 .debug_macinfo
                0x0000ce0a     0x60de ./src/main.o
 .debug_macinfo
                0x00012ee8     0x5d78 C:\LPC1114_GIT\mqtt\Lib\libmqtt.a(mqtt_wrapper.o)
 .debug_macinfo
                0x00018c60     0x4455 C:\LPC1114_GIT\mqtt\Lib\libmqtt.a(lan_utils.o)
 .debug_macinfo
                0x0001d0b5     0x3dca C:\LPC1114_GIT\mqtt\Lib\libmqtt.a(libmqtt.o)
 .debug_macinfo
                0x00020e7f     0x5c16 C:\LPC1114_GIT\enc28j60\Lib\libenc28j60.a(lan.o)
 .debug_macinfo
                0x00026a95     0x538f C:\LPC1114_GIT\enc28j60\Lib\libenc28j60.a(enc28j60.o)
 .debug_macinfo
                0x0002be24     0x57ad C:\LPC1114_GIT\enc28j60\Lib\libenc28j60.a(compat.o)
 .debug_macinfo
                0x000315d1     0x5b40 C:\LPC1114_GIT\rfm73_server\Lib\librfm73_server.a(rfm.o)
 .debug_macinfo
                0x00037111     0x55de C:\LPC1114_GIT\rfm73_server\Lib\librfm73_server.a(server_rfm.o)
 .debug_macinfo
                0x0003c6ef     0x584a C:\LPC1114_GIT\rfm73_server\Lib\librfm73_server.a(compat.o)
 .debug_macinfo
                0x00041f39     0x5555 C:\LPC1114_GIT\ap090\Lib\libap090.a(ap_090.o)
 .debug_macinfo
                0x0004748e     0x55cc C:\LPC1114_GIT\core\Lib\libcore.a(printf.o)
 .debug_macinfo
                0x0004ca5a     0x5483 C:\LPC1114_GIT\core\Lib\libcore.a(counter.o)
 .debug_macinfo
                0x00051edd     0x54b7 C:\LPC1114_GIT\core\Lib\libcore.a(gpio.o)
 .debug_macinfo
                0x00057394     0x551c C:\LPC1114_GIT\core\Lib\libcore.a(leds.o)
 .debug_macinfo
                0x0005c8b0     0x3dc3 C:\LPC1114_GIT\core\Lib\libcore.a(loopbuffer.o)
 .debug_macinfo
                0x00060673     0x558f C:\LPC1114_GIT\core\Lib\libcore.a(pwr.o)
 .debug_macinfo
                0x00065c02     0x5799 C:\LPC1114_GIT\core\Lib\libcore.a(spi.o)
 .debug_macinfo
                0x0006b39b     0x5799 C:\LPC1114_GIT\core\Lib\libcore.a(ssp1.o)
 .debug_macinfo
                0x00070b34     0x57b1 C:\LPC1114_GIT\CMSIS_CORE_LPC11xx\Debug\libCMSIS_CORE_LPC11xx.a(system_LPC11xx.o)

.debug_str      0x00000000     0x209c
 .debug_str     0x00000000      0x453 ./src/cr_startup_lpc11xx.o
                                0x480 (size before relaxing)
 .debug_str     0x00000453       0x16 ./src/crp.o
                                 0x8b (size before relaxing)
 .debug_str     0x00000469      0x101 ./src/irq_handlers.o
                                0x20f (size before relaxing)
 .debug_str     0x0000056a       0xbb ./src/main.o
                                0x20e (size before relaxing)
 .debug_str     0x00000625      0x439 C:\LPC1114_GIT\mqtt\Lib\libmqtt.a(mqtt_wrapper.o)
                                0x5ae (size before relaxing)
 .debug_str     0x00000a5e       0xd4 C:\LPC1114_GIT\mqtt\Lib\libmqtt.a(lan_utils.o)
                                0x205 (size before relaxing)
 .debug_str     0x00000b32       0x65 C:\LPC1114_GIT\mqtt\Lib\libmqtt.a(libmqtt.o)
                                0x159 (size before relaxing)
 .debug_str     0x00000b97      0x467 C:\LPC1114_GIT\enc28j60\Lib\libenc28j60.a(lan.o)
                                0x7b8 (size before relaxing)
 .debug_str     0x00000ffe      0x16f C:\LPC1114_GIT\enc28j60\Lib\libenc28j60.a(enc28j60.o)
                                0x279 (size before relaxing)
 .debug_str     0x0000116d       0x21 C:\LPC1114_GIT\enc28j60\Lib\libenc28j60.a(compat.o)
                                0x145 (size before relaxing)
 .debug_str     0x0000118e      0x288 C:\LPC1114_GIT\rfm73_server\Lib\librfm73_server.a(rfm.o)
                                0x39f (size before relaxing)
 .debug_str     0x00001416      0x297 C:\LPC1114_GIT\rfm73_server\Lib\librfm73_server.a(server_rfm.o)
                                0x632 (size before relaxing)
 .debug_str     0x000016ad       0x5b C:\LPC1114_GIT\rfm73_server\Lib\librfm73_server.a(compat.o)
                                0x160 (size before relaxing)
 .debug_str     0x00001708       0xb0 C:\LPC1114_GIT\ap090\Lib\libap090.a(ap_090.o)
                                0x19a (size before relaxing)
 .debug_str     0x000017b8      0x369 C:\LPC1114_GIT\core\Lib\libcore.a(printf.o)
                                0x893 (size before relaxing)
 .debug_str     0x00001b21       0xb8 C:\LPC1114_GIT\core\Lib\libcore.a(counter.o)
                                0x62e (size before relaxing)
 .debug_str     0x00001bd9       0xc4 C:\LPC1114_GIT\core\Lib\libcore.a(gpio.o)
                                0x433 (size before relaxing)
 .debug_str     0x00001c9d       0x61 C:\LPC1114_GIT\core\Lib\libcore.a(leds.o)
                                0x35d (size before relaxing)
 .debug_str     0x00001cfe       0x8a C:\LPC1114_GIT\core\Lib\libcore.a(loopbuffer.o)
                                0x18d (size before relaxing)
 .debug_str     0x00001d88      0x1dd C:\LPC1114_GIT\core\Lib\libcore.a(pwr.o)
                                0x9c5 (size before relaxing)
 .debug_str     0x00001f65       0x5f C:\LPC1114_GIT\core\Lib\libcore.a(spi.o)
                                0x5b3 (size before relaxing)
 .debug_str     0x00001fc4       0x5f C:\LPC1114_GIT\core\Lib\libcore.a(ssp1.o)
                                0x5b1 (size before relaxing)
 .debug_str     0x00002023       0x79 C:\LPC1114_GIT\CMSIS_CORE_LPC11xx\Debug\libCMSIS_CORE_LPC11xx.a(system_LPC11xx.o)
                                0x3a1 (size before relaxing)

.comment        0x00000000       0x70
 .comment       0x00000000       0x70 ./src/cr_startup_lpc11xx.o
                                 0x71 (size before relaxing)
 .comment       0x00000000       0x71 ./src/crp.o
 .comment       0x00000000       0x71 ./src/irq_handlers.o
 .comment       0x00000000       0x71 ./src/main.o
 .comment       0x00000000       0x71 C:\LPC1114_GIT\mqtt\Lib\libmqtt.a(mqtt_wrapper.o)
 .comment       0x00000000       0x71 C:\LPC1114_GIT\mqtt\Lib\libmqtt.a(lan_utils.o)
 .comment       0x00000000       0x71 C:\LPC1114_GIT\mqtt\Lib\libmqtt.a(libmqtt.o)
 .comment       0x00000000       0x71 C:\LPC1114_GIT\enc28j60\Lib\libenc28j60.a(lan.o)
 .comment       0x00000000       0x71 C:\LPC1114_GIT\enc28j60\Lib\libenc28j60.a(enc28j60.o)
 .comment       0x00000000       0x71 C:\LPC1114_GIT\enc28j60\Lib\libenc28j60.a(compat.o)
 .comment       0x00000000       0x71 C:\LPC1114_GIT\rfm73_server\Lib\librfm73_server.a(rfm.o)
 .comment       0x00000000       0x71 C:\LPC1114_GIT\rfm73_server\Lib\librfm73_server.a(server_rfm.o)
 .comment       0x00000000       0x71 C:\LPC1114_GIT\rfm73_server\Lib\librfm73_server.a(compat.o)
 .comment       0x00000000       0x71 C:\LPC1114_GIT\ap090\Lib\libap090.a(ap_090.o)
 .comment       0x00000000       0x71 C:\LPC1114_GIT\core\Lib\libcore.a(printf.o)
 .comment       0x00000000       0x71 C:\LPC1114_GIT\core\Lib\libcore.a(counter.o)
 .comment       0x00000000       0x71 C:\LPC1114_GIT\core\Lib\libcore.a(gpio.o)
 .comment       0x00000000       0x71 C:\LPC1114_GIT\core\Lib\libcore.a(leds.o)
 .comment       0x00000000       0x71 C:\LPC1114_GIT\core\Lib\libcore.a(loopbuffer.o)
 .comment       0x00000000       0x71 C:\LPC1114_GIT\core\Lib\libcore.a(pwr.o)
 .comment       0x00000000       0x71 C:\LPC1114_GIT\core\Lib\libcore.a(spi.o)
 .comment       0x00000000       0x71 C:\LPC1114_GIT\core\Lib\libcore.a(ssp1.o)
 .comment       0x00000000       0x71 C:\LPC1114_GIT\CMSIS_CORE_LPC11xx\Debug\libCMSIS_CORE_LPC11xx.a(system_LPC11xx.o)
 .comment       0x00000000       0x71 c:/nxp/lpcxpresso_6.1.0_164/lpcxpresso/tools/bin/../lib/gcc/arm-none-eabi/4.6.2/../../../../arm-none-eabi/lib/armv6-m\libcr_c.a(memcpy.o)
 .comment       0x00000000       0x71 c:/nxp/lpcxpresso_6.1.0_164/lpcxpresso/tools/bin/../lib/gcc/arm-none-eabi/4.6.2/../../../../arm-none-eabi/lib/armv6-m\libcr_c.a(memmove.o)
 .comment       0x00000000       0x71 c:/nxp/lpcxpresso_6.1.0_164/lpcxpresso/tools/bin/../lib/gcc/arm-none-eabi/4.6.2/../../../../arm-none-eabi/lib/armv6-m\libcr_c.a(memset.o)
 .comment       0x00000000       0x71 c:/nxp/lpcxpresso_6.1.0_164/lpcxpresso/tools/bin/../lib/gcc/arm-none-eabi/4.6.2/../../../../arm-none-eabi/lib/armv6-m\libcr_c.a(__weak__main.o)
 .comment       0x00000000       0x71 c:/nxp/lpcxpresso_6.1.0_164/lpcxpresso/tools/bin/../lib/gcc/arm-none-eabi/4.6.2/../../../../arm-none-eabi/lib/armv6-m\libcr_c.a(memcmp.o)
 .comment       0x00000000       0x71 c:/nxp/lpcxpresso_6.1.0_164/lpcxpresso/tools/bin/../lib/gcc/arm-none-eabi/4.6.2/../../../../arm-none-eabi/lib/armv6-m\libcr_c.a(strchr.o)
 .comment       0x00000000       0x71 c:/nxp/lpcxpresso_6.1.0_164/lpcxpresso/tools/bin/../lib/gcc/arm-none-eabi/4.6.2/../../../../arm-none-eabi/lib/armv6-m\libcr_c.a(strcpy.o)
 .comment       0x00000000       0x71 c:/nxp/lpcxpresso_6.1.0_164/lpcxpresso/tools/bin/../lib/gcc/arm-none-eabi/4.6.2/../../../../arm-none-eabi/lib/armv6-m\libcr_c.a(strlen.o)

.ARM.attributes
                0x00000000       0x2f
 .ARM.attributes
                0x00000000       0x31 ./src/cr_startup_lpc11xx.o
 .ARM.attributes
                0x00000031       0x31 ./src/crp.o
 .ARM.attributes
                0x00000062       0x31 ./src/irq_handlers.o
 .ARM.attributes
                0x00000093       0x31 ./src/main.o
 .ARM.attributes
                0x000000c4       0x31 C:\LPC1114_GIT\mqtt\Lib\libmqtt.a(mqtt_wrapper.o)
 .ARM.attributes
                0x000000f5       0x31 C:\LPC1114_GIT\mqtt\Lib\libmqtt.a(lan_utils.o)
 .ARM.attributes
                0x00000126       0x31 C:\LPC1114_GIT\mqtt\Lib\libmqtt.a(libmqtt.o)
 .ARM.attributes
                0x00000157       0x31 C:\LPC1114_GIT\enc28j60\Lib\libenc28j60.a(lan.o)
 .ARM.attributes
                0x00000188       0x31 C:\LPC1114_GIT\enc28j60\Lib\libenc28j60.a(enc28j60.o)
 .ARM.attributes
                0x000001b9       0x31 C:\LPC1114_GIT\enc28j60\Lib\libenc28j60.a(compat.o)
 .ARM.attributes
                0x000001ea       0x31 C:\LPC1114_GIT\rfm73_server\Lib\librfm73_server.a(rfm.o)
 .ARM.attributes
                0x0000021b       0x31 C:\LPC1114_GIT\rfm73_server\Lib\librfm73_server.a(server_rfm.o)
 .ARM.attributes
                0x0000024c       0x31 C:\LPC1114_GIT\rfm73_server\Lib\librfm73_server.a(compat.o)
 .ARM.attributes
                0x0000027d       0x31 C:\LPC1114_GIT\ap090\Lib\libap090.a(ap_090.o)
 .ARM.attributes
                0x000002ae       0x31 C:\LPC1114_GIT\core\Lib\libcore.a(printf.o)
 .ARM.attributes
                0x000002df       0x31 C:\LPC1114_GIT\core\Lib\libcore.a(counter.o)
 .ARM.attributes
                0x00000310       0x31 C:\LPC1114_GIT\core\Lib\libcore.a(gpio.o)
 .ARM.attributes
                0x00000341       0x31 C:\LPC1114_GIT\core\Lib\libcore.a(leds.o)
 .ARM.attributes
                0x00000372       0x31 C:\LPC1114_GIT\core\Lib\libcore.a(loopbuffer.o)
 .ARM.attributes
                0x000003a3       0x31 C:\LPC1114_GIT\core\Lib\libcore.a(pwr.o)
 .ARM.attributes
                0x000003d4       0x31 C:\LPC1114_GIT\core\Lib\libcore.a(spi.o)
 .ARM.attributes
                0x00000405       0x31 C:\LPC1114_GIT\core\Lib\libcore.a(ssp1.o)
 .ARM.attributes
                0x00000436       0x31 C:\LPC1114_GIT\CMSIS_CORE_LPC11xx\Debug\libCMSIS_CORE_LPC11xx.a(system_LPC11xx.o)
 .ARM.attributes
                0x00000467       0x31 c:/nxp/lpcxpresso_6.1.0_164/lpcxpresso/tools/bin/../lib/gcc/arm-none-eabi/4.6.2/../../../../arm-none-eabi/lib/armv6-m\libcr_c.a(memcpy.o)
 .ARM.attributes
                0x00000498       0x31 c:/nxp/lpcxpresso_6.1.0_164/lpcxpresso/tools/bin/../lib/gcc/arm-none-eabi/4.6.2/../../../../arm-none-eabi/lib/armv6-m\libcr_c.a(memmove.o)
 .ARM.attributes
                0x000004c9       0x31 c:/nxp/lpcxpresso_6.1.0_164/lpcxpresso/tools/bin/../lib/gcc/arm-none-eabi/4.6.2/../../../../arm-none-eabi/lib/armv6-m\libcr_c.a(memset.o)
 .ARM.attributes
                0x000004fa       0x31 c:/nxp/lpcxpresso_6.1.0_164/lpcxpresso/tools/bin/../lib/gcc/arm-none-eabi/4.6.2/../../../../arm-none-eabi/lib/armv6-m\libcr_c.a(__weak__main.o)
 .ARM.attributes
                0x0000052b       0x31 c:/nxp/lpcxpresso_6.1.0_164/lpcxpresso/tools/bin/../lib/gcc/arm-none-eabi/4.6.2/../../../../arm-none-eabi/lib/armv6-m\libcr_c.a(memcmp.o)
 .ARM.attributes
                0x0000055c       0x31 c:/nxp/lpcxpresso_6.1.0_164/lpcxpresso/tools/bin/../lib/gcc/arm-none-eabi/4.6.2/../../../../arm-none-eabi/lib/armv6-m\libcr_c.a(strchr.o)
 .ARM.attributes
                0x0000058d       0x31 c:/nxp/lpcxpresso_6.1.0_164/lpcxpresso/tools/bin/../lib/gcc/arm-none-eabi/4.6.2/../../../../arm-none-eabi/lib/armv6-m\libcr_c.a(strcpy.o)
 .ARM.attributes
                0x000005be       0x31 c:/nxp/lpcxpresso_6.1.0_164/lpcxpresso/tools/bin/../lib/gcc/arm-none-eabi/4.6.2/../../../../arm-none-eabi/lib/armv6-m\libcr_c.a(strlen.o)
 .ARM.attributes
                0x000005ef       0x21 c:/nxp/lpcxpresso_6.1.0_164/lpcxpresso/tools/bin/../lib/gcc/arm-none-eabi/4.6.2/armv6-m\libcr_eabihelpers.a(division.o)
 .ARM.attributes
                0x00000610       0x21 c:/nxp/lpcxpresso_6.1.0_164/lpcxpresso/tools/bin/../lib/gcc/arm-none-eabi/4.6.2/armv6-m\libcr_eabihelpers.a(memcpy.o)

.debug_frame    0x00000000     0x20ac
 .debug_frame   0x00000000      0x140 ./src/cr_startup_lpc11xx.o
 .debug_frame   0x00000140       0xbc ./src/irq_handlers.o
 .debug_frame   0x000001fc       0xb0 ./src/main.o
 .debug_frame   0x000002ac      0x44c C:\LPC1114_GIT\mqtt\Lib\libmqtt.a(mqtt_wrapper.o)
 .debug_frame   0x000006f8       0x6c C:\LPC1114_GIT\mqtt\Lib\libmqtt.a(lan_utils.o)
 .debug_frame   0x00000764       0x84 C:\LPC1114_GIT\mqtt\Lib\libmqtt.a(libmqtt.o)
 .debug_frame   0x000007e8      0x3d0 C:\LPC1114_GIT\enc28j60\Lib\libenc28j60.a(lan.o)
 .debug_frame   0x00000bb8      0x230 C:\LPC1114_GIT\enc28j60\Lib\libenc28j60.a(enc28j60.o)
 .debug_frame   0x00000de8       0x8c C:\LPC1114_GIT\enc28j60\Lib\libenc28j60.a(compat.o)
 .debug_frame   0x00000e74      0x3d0 C:\LPC1114_GIT\rfm73_server\Lib\librfm73_server.a(rfm.o)
 .debug_frame   0x00001244      0x18c C:\LPC1114_GIT\rfm73_server\Lib\librfm73_server.a(server_rfm.o)
 .debug_frame   0x000013d0       0xf8 C:\LPC1114_GIT\rfm73_server\Lib\librfm73_server.a(compat.o)
 .debug_frame   0x000014c8      0x12c C:\LPC1114_GIT\ap090\Lib\libap090.a(ap_090.o)
 .debug_frame   0x000015f4      0x1dc C:\LPC1114_GIT\core\Lib\libcore.a(printf.o)
 .debug_frame   0x000017d0      0x150 C:\LPC1114_GIT\core\Lib\libcore.a(counter.o)
 .debug_frame   0x00001920      0x14c C:\LPC1114_GIT\core\Lib\libcore.a(gpio.o)
 .debug_frame   0x00001a6c       0xb0 C:\LPC1114_GIT\core\Lib\libcore.a(leds.o)
 .debug_frame   0x00001b1c      0x130 C:\LPC1114_GIT\core\Lib\libcore.a(loopbuffer.o)
 .debug_frame   0x00001c4c      0x284 C:\LPC1114_GIT\core\Lib\libcore.a(pwr.o)
 .debug_frame   0x00001ed0       0xc0 C:\LPC1114_GIT\core\Lib\libcore.a(spi.o)
 .debug_frame   0x00001f90       0xcc C:\LPC1114_GIT\core\Lib\libcore.a(ssp1.o)
 .debug_frame   0x0000205c       0x50 C:\LPC1114_GIT\CMSIS_CORE_LPC11xx\Debug\libCMSIS_CORE_LPC11xx.a(system_LPC11xx.o)
